{
  "_format": "hh-sol-artifact-1",
  "contractName": "CcipBidExecutor",
  "sourceName": "contracts/CcipBidExecutor.sol",
  "abi": [
    {
      "inputs": [],
      "stateMutability": "nonpayable",
      "type": "constructor"
    },
    {
      "inputs": [
        {
          "internalType": "address",
          "name": "owner",
          "type": "address"
        }
      ],
      "name": "OwnableInvalidOwner",
      "type": "error"
    },
    {
      "inputs": [
        {
          "internalType": "address",
          "name": "account",
          "type": "address"
        }
      ],
      "name": "OwnableUnauthorizedAccount",
      "type": "error"
    },
    {
      "anonymous": false,
      "inputs": [
        {
          "indexed": true,
          "internalType": "address",
          "name": "previousOwner",
          "type": "address"
        },
        {
          "indexed": true,
          "internalType": "address",
          "name": "newOwner",
          "type": "address"
        }
      ],
      "name": "OwnershipTransferred",
      "type": "event"
    },
    {
      "anonymous": false,
      "inputs": [
        {
          "indexed": true,
          "internalType": "address",
          "name": "auction",
          "type": "address"
        },
        {
          "indexed": false,
          "internalType": "bool",
          "name": "isEth",
          "type": "bool"
        },
        {
          "indexed": false,
          "internalType": "uint256",
          "name": "amount",
          "type": "uint256"
        }
      ],
      "name": "PayloadExecuted",
      "type": "event"
    },
    {
      "inputs": [
        {
          "internalType": "bytes",
          "name": "payload",
          "type": "bytes"
        }
      ],
      "name": "execute",
      "outputs": [],
      "stateMutability": "payable",
      "type": "function"
    },
    {
      "inputs": [],
      "name": "owner",
      "outputs": [
        {
          "internalType": "address",
          "name": "",
          "type": "address"
        }
      ],
      "stateMutability": "view",
      "type": "function"
    },
    {
      "inputs": [],
      "name": "renounceOwnership",
      "outputs": [],
      "stateMutability": "nonpayable",
      "type": "function"
    },
    {
      "inputs": [
        {
          "internalType": "address",
          "name": "newOwner",
          "type": "address"
        }
      ],
      "name": "transferOwnership",
      "outputs": [],
      "stateMutability": "nonpayable",
      "type": "function"
    }
  ],
  "bytecode": "0x608060405234801561001057600080fd5b50338061003757604051631e4fbdf760e01b81526000600482015260240160405180910390fd5b61004081610046565b50610096565b600080546001600160a01b038381166001600160a01b0319831681178455604051919092169283917f8be0079c531659141344cd1fd0a4f28419497f9722a3daafe3b4186f6b6457e09190a35050565b610481806100a56000396000f3fe60806040526004361061003f5760003560e01c806309c5eabe14610044578063715018a6146100595780638da5cb5b1461006e578063f2fde38b1461009a575b600080fd5b61005761005236600461031f565b6100ba565b005b34801561006557600080fd5b50610057610250565b34801561007a57600080fd5b50600054604080516001600160a01b039092168252519081900360200190f35b3480156100a657600080fd5b506100576100b53660046103ad565b610264565b6100c26102a2565b60006100d0828401846103cf565b905080602001511561018857806040015134146101245760405162461bcd60e51b815260206004820152600d60248201526c626164206d73672e76616c756560981b60448201526064015b60405180910390fd5b805160405163454a2ab360e01b8152600060048201526001600160a01b039091169063454a2ab39034906024016000604051808303818588803b15801561016a57600080fd5b505af115801561017e573d6000803e3d6000fd5b50505050506101f1565b8051604080830151905163454a2ab360e01b81526001600160a01b039092169163454a2ab3916101be9160040190815260200190565b600060405180830381600087803b1580156101d857600080fd5b505af11580156101ec573d6000803e3d6000fd5b505050505b80600001516001600160a01b03167f5a65b6ef3ee4268dcfb8e4637f7106577053dd994e292a6f4175b472a5d44508826020015183604001516040516102439291909115158252602082015260400190565b60405180910390a2505050565b6102586102a2565b61026260006102cf565b565b61026c6102a2565b6001600160a01b03811661029657604051631e4fbdf760e01b81526000600482015260240161011b565b61029f816102cf565b50565b6000546001600160a01b031633146102625760405163118cdaa760e01b815233600482015260240161011b565b600080546001600160a01b038381166001600160a01b0319831681178455604051919092169283917f8be0079c531659141344cd1fd0a4f28419497f9722a3daafe3b4186f6b6457e09190a35050565b6000806020838503121561033257600080fd5b823567ffffffffffffffff8082111561034a57600080fd5b818501915085601f83011261035e57600080fd5b81358181111561036d57600080fd5b86602082850101111561037f57600080fd5b60209290920196919550909350505050565b80356001600160a01b03811681146103a857600080fd5b919050565b6000602082840312156103bf57600080fd5b6103c882610391565b9392505050565b6000606082840312156103e157600080fd5b6040516060810181811067ffffffffffffffff8211171561041257634e487b7160e01b600052604160045260246000fd5b60405261041e83610391565b81526020830135801515811461043357600080fd5b6020820152604092830135928101929092525091905056fea2646970667358221220b8c40f2963dd3992c59b281bdf233dd06eea6468df47910b982504ba35fdfdef64736f6c63430008180033",
  "linkReferences": {},
  "deployedLinkReferences": {}
}