{
  "_format": "hh-sol-artifact-1",
  "contractName": "AuctionImplementationV2",
  "sourceName": "contracts/AuctionImplementationV2.sol",
  "abi": [
    {
      "inputs": [
        {
          "internalType": "address",
          "name": "target",
          "type": "address"
        }
      ],
      "name": "AddressEmptyCode",
      "type": "error"
    },
    {
      "inputs": [
        {
          "internalType": "address",
          "name": "implementation",
          "type": "address"
        }
      ],
      "name": "ERC1967InvalidImplementation",
      "type": "error"
    },
    {
      "inputs": [],
      "name": "ERC1967NonPayable",
      "type": "error"
    },
    {
      "inputs": [],
      "name": "FailedCall",
      "type": "error"
    },
    {
      "inputs": [],
      "name": "InvalidInitialization",
      "type": "error"
    },
    {
      "inputs": [],
      "name": "NotInitializing",
      "type": "error"
    },
    {
      "inputs": [
        {
          "internalType": "address",
          "name": "owner",
          "type": "address"
        }
      ],
      "name": "OwnableInvalidOwner",
      "type": "error"
    },
    {
      "inputs": [
        {
          "internalType": "address",
          "name": "account",
          "type": "address"
        }
      ],
      "name": "OwnableUnauthorizedAccount",
      "type": "error"
    },
    {
      "inputs": [],
      "name": "ReentrancyGuardReentrantCall",
      "type": "error"
    },
    {
      "inputs": [],
      "name": "UUPSUnauthorizedCallContext",
      "type": "error"
    },
    {
      "inputs": [
        {
          "internalType": "bytes32",
          "name": "slot",
          "type": "bytes32"
        }
      ],
      "name": "UUPSUnsupportedProxiableUUID",
      "type": "error"
    },
    {
      "anonymous": false,
      "inputs": [
        {
          "indexed": true,
          "internalType": "address",
          "name": "seller",
          "type": "address"
        },
        {
          "indexed": true,
          "internalType": "address",
          "name": "nft",
          "type": "address"
        },
        {
          "indexed": true,
          "internalType": "uint256",
          "name": "tokenId",
          "type": "uint256"
        },
        {
          "indexed": false,
          "internalType": "address",
          "name": "payToken",
          "type": "address"
        },
        {
          "indexed": false,
          "internalType": "uint256",
          "name": "startPrice",
          "type": "uint256"
        },
        {
          "indexed": false,
          "internalType": "uint256",
          "name": "duration",
          "type": "uint256"
        }
      ],
      "name": "AuctionCreated",
      "type": "event"
    },
    {
      "anonymous": false,
      "inputs": [
        {
          "indexed": true,
          "internalType": "address",
          "name": "winner",
          "type": "address"
        },
        {
          "indexed": false,
          "internalType": "uint256",
          "name": "amount",
          "type": "uint256"
        }
      ],
      "name": "AuctionEnded",
      "type": "event"
    },
    {
      "anonymous": false,
      "inputs": [
        {
          "indexed": true,
          "internalType": "address",
          "name": "bidder",
          "type": "address"
        },
        {
          "indexed": false,
          "internalType": "uint256",
          "name": "amount",
          "type": "uint256"
        },
        {
          "indexed": false,
          "internalType": "uint256",
          "name": "amountUsd",
          "type": "uint256"
        }
      ],
      "name": "BidPlaced",
      "type": "event"
    },
    {
      "anonymous": false,
      "inputs": [
        {
          "indexed": true,
          "internalType": "address",
          "name": "router",
          "type": "address"
        },
        {
          "indexed": false,
          "internalType": "bytes",
          "name": "payload",
          "type": "bytes"
        }
      ],
      "name": "CcipBidRequested",
      "type": "event"
    },
    {
      "anonymous": false,
      "inputs": [
        {
          "indexed": true,
          "internalType": "address",
          "name": "router",
          "type": "address"
        },
        {
          "indexed": false,
          "internalType": "bool",
          "name": "enabled",
          "type": "bool"
        }
      ],
      "name": "CcipConfigUpdated",
      "type": "event"
    },
    {
      "anonymous": false,
      "inputs": [
        {
          "indexed": true,
          "internalType": "address",
          "name": "recipient",
          "type": "address"
        },
        {
          "indexed": false,
          "internalType": "uint16",
          "name": "feeBps",
          "type": "uint16"
        }
      ],
      "name": "FeeConfigUpdated",
      "type": "event"
    },
    {
      "anonymous": false,
      "inputs": [
        {
          "indexed": false,
          "internalType": "uint64",
          "name": "version",
          "type": "uint64"
        }
      ],
      "name": "Initialized",
      "type": "event"
    },
    {
      "anonymous": false,
      "inputs": [
        {
          "indexed": true,
          "internalType": "address",
          "name": "previousOwner",
          "type": "address"
        },
        {
          "indexed": true,
          "internalType": "address",
          "name": "newOwner",
          "type": "address"
        }
      ],
      "name": "OwnershipTransferred",
      "type": "event"
    },
    {
      "anonymous": false,
      "inputs": [
        {
          "indexed": true,
          "internalType": "address",
          "name": "token",
          "type": "address"
        },
        {
          "indexed": true,
          "internalType": "address",
          "name": "aggregator",
          "type": "address"
        }
      ],
      "name": "PriceFeedUpdated",
      "type": "event"
    },
    {
      "anonymous": false,
      "inputs": [
        {
          "indexed": true,
          "internalType": "address",
          "name": "implementation",
          "type": "address"
        }
      ],
      "name": "Upgraded",
      "type": "event"
    },
    {
      "inputs": [],
      "name": "UPGRADE_INTERFACE_VERSION",
      "outputs": [
        {
          "internalType": "string",
          "name": "",
          "type": "string"
        }
      ],
      "stateMutability": "view",
      "type": "function"
    },
    {
      "inputs": [],
      "name": "auction",
      "outputs": [
        {
          "internalType": "address",
          "name": "seller",
          "type": "address"
        },
        {
          "internalType": "uint256",
          "name": "duration",
          "type": "uint256"
        },
        {
          "internalType": "uint256",
          "name": "startPrice",
          "type": "uint256"
        },
        {
          "internalType": "uint256",
          "name": "startTime",
          "type": "uint256"
        },
        {
          "internalType": "bool",
          "name": "ended",
          "type": "bool"
        },
        {
          "internalType": "address",
          "name": "highestBidder",
          "type": "address"
        },
        {
          "internalType": "uint256",
          "name": "highestBid",
          "type": "uint256"
        },
        {
          "internalType": "address",
          "name": "nftContract",
          "type": "address"
        },
        {
          "internalType": "uint256",
          "name": "tokenId",
          "type": "uint256"
        },
        {
          "internalType": "address",
          "name": "payTokenAddress",
          "type": "address"
        }
      ],
      "stateMutability": "view",
      "type": "function"
    },
    {
      "inputs": [
        {
          "internalType": "uint256",
          "name": "amount",
          "type": "uint256"
        }
      ],
      "name": "bid",
      "outputs": [],
      "stateMutability": "payable",
      "type": "function"
    },
    {
      "inputs": [],
      "name": "cancel",
      "outputs": [],
      "stateMutability": "nonpayable",
      "type": "function"
    },
    {
      "inputs": [],
      "name": "ccipEnabled",
      "outputs": [
        {
          "internalType": "bool",
          "name": "",
          "type": "bool"
        }
      ],
      "stateMutability": "view",
      "type": "function"
    },
    {
      "inputs": [],
      "name": "ccipRouter",
      "outputs": [
        {
          "internalType": "address",
          "name": "",
          "type": "address"
        }
      ],
      "stateMutability": "view",
      "type": "function"
    },
    {
      "inputs": [],
      "name": "endAuction",
      "outputs": [],
      "stateMutability": "nonpayable",
      "type": "function"
    },
    {
      "inputs": [],
      "name": "feeBps",
      "outputs": [
        {
          "internalType": "uint16",
          "name": "",
          "type": "uint16"
        }
      ],
      "stateMutability": "view",
      "type": "function"
    },
    {
      "inputs": [],
      "name": "feeRecipient",
      "outputs": [
        {
          "internalType": "address",
          "name": "",
          "type": "address"
        }
      ],
      "stateMutability": "view",
      "type": "function"
    },
    {
      "inputs": [
        {
          "internalType": "address",
          "name": "token",
          "type": "address"
        }
      ],
      "name": "getLatestPrice",
      "outputs": [
        {
          "internalType": "int256",
          "name": "price",
          "type": "int256"
        },
        {
          "internalType": "uint8",
          "name": "decimals",
          "type": "uint8"
        }
      ],
      "stateMutability": "view",
      "type": "function"
    },
    {
      "inputs": [
        {
          "internalType": "address",
          "name": "owner_",
          "type": "address"
        },
        {
          "internalType": "address",
          "name": "seller",
          "type": "address"
        },
        {
          "internalType": "address",
          "name": "nftContract",
          "type": "address"
        },
        {
          "internalType": "uint256",
          "name": "tokenId",
          "type": "uint256"
        },
        {
          "internalType": "uint256",
          "name": "duration",
          "type": "uint256"
        },
        {
          "internalType": "uint256",
          "name": "startPrice",
          "type": "uint256"
        },
        {
          "internalType": "address",
          "name": "payTokenAddress",
          "type": "address"
        }
      ],
      "name": "initialize",
      "outputs": [],
      "stateMutability": "nonpayable",
      "type": "function"
    },
    {
      "inputs": [],
      "name": "owner",
      "outputs": [
        {
          "internalType": "address",
          "name": "",
          "type": "address"
        }
      ],
      "stateMutability": "view",
      "type": "function"
    },
    {
      "inputs": [
        {
          "internalType": "address",
          "name": "",
          "type": "address"
        }
      ],
      "name": "priceFeeds",
      "outputs": [
        {
          "internalType": "contract AggregatorV3Interface",
          "name": "",
          "type": "address"
        }
      ],
      "stateMutability": "view",
      "type": "function"
    },
    {
      "inputs": [],
      "name": "proxiableUUID",
      "outputs": [
        {
          "internalType": "bytes32",
          "name": "",
          "type": "bytes32"
        }
      ],
      "stateMutability": "view",
      "type": "function"
    },
    {
      "inputs": [
        {
          "internalType": "uint256",
          "name": "amount",
          "type": "uint256"
        }
      ],
      "name": "quoteBidInUsd",
      "outputs": [
        {
          "internalType": "uint256",
          "name": "usdAmountE8",
          "type": "uint256"
        }
      ],
      "stateMutability": "view",
      "type": "function"
    },
    {
      "inputs": [],
      "name": "renounceOwnership",
      "outputs": [],
      "stateMutability": "nonpayable",
      "type": "function"
    },
    {
      "inputs": [
        {
          "internalType": "bytes",
          "name": "",
          "type": "bytes"
        }
      ],
      "name": "sendCrossChainBid",
      "outputs": [
        {
          "internalType": "bool",
          "name": "",
          "type": "bool"
        }
      ],
      "stateMutability": "view",
      "type": "function"
    },
    {
      "inputs": [
        {
          "internalType": "bytes",
          "name": "payload",
          "type": "bytes"
        }
      ],
      "name": "sendCrossChainBidRequest",
      "outputs": [
        {
          "internalType": "bool",
          "name": "",
          "type": "bool"
        }
      ],
      "stateMutability": "nonpayable",
      "type": "function"
    },
    {
      "inputs": [
        {
          "internalType": "address",
          "name": "router",
          "type": "address"
        },
        {
          "internalType": "bool",
          "name": "enabled",
          "type": "bool"
        }
      ],
      "name": "setCcipConfig",
      "outputs": [],
      "stateMutability": "nonpayable",
      "type": "function"
    },
    {
      "inputs": [
        {
          "internalType": "address",
          "name": "recipient",
          "type": "address"
        },
        {
          "internalType": "uint16",
          "name": "feeBps_",
          "type": "uint16"
        }
      ],
      "name": "setFeeConfig",
      "outputs": [],
      "stateMutability": "nonpayable",
      "type": "function"
    },
    {
      "inputs": [
        {
          "internalType": "address",
          "name": "token",
          "type": "address"
        },
        {
          "internalType": "address",
          "name": "aggregator",
          "type": "address"
        }
      ],
      "name": "setPriceFeed",
      "outputs": [],
      "stateMutability": "nonpayable",
      "type": "function"
    },
    {
      "inputs": [
        {
          "internalType": "address",
          "name": "newOwner",
          "type": "address"
        }
      ],
      "name": "transferOwnership",
      "outputs": [],
      "stateMutability": "nonpayable",
      "type": "function"
    },
    {
      "inputs": [
        {
          "internalType": "address",
          "name": "newImplementation",
          "type": "address"
        },
        {
          "internalType": "bytes",
          "name": "data",
          "type": "bytes"
        }
      ],
      "name": "upgradeToAndCall",
      "outputs": [],
      "stateMutability": "payable",
      "type": "function"
    },
    {
      "inputs": [],
      "name": "version",
      "outputs": [
        {
          "internalType": "string",
          "name": "",
          "type": "string"
        }
      ],
      "stateMutability": "pure",
      "type": "function"
    },
    {
      "stateMutability": "payable",
      "type": "receive"
    }
  ],
  "bytecode": "0x60a06040523060805234801561001457600080fd5b5060805161245661003e60003960008181611987015281816119b00152611af601526124566000f3fe60806040526004361061014f5760003560e01c806376e11286116100b6578063ea8a1af01161006f578063ea8a1af014610495578063ecaef8fa146104aa578063f2b3a5ac146104ca578063f2fde38b146104ea578063fe0d75141461050a578063fe67a54b1461052a57600080fd5b806376e11286146103295780637d9f6db5146103495780638754bbc6146103f95780638da5cb5b146104195780639dcb511a1461042e578063ad3cb1cc1461046457600080fd5b8063454a2ab311610108578063454a2ab314610277578063469048401461028a5780634f1ef286146102aa57806352d1902d146102bd57806354fd4d50146102e0578063715018a61461031457600080fd5b80630de229841461015b5780630ff2d0031461019857806316345f18146101c957806324a9d853146102005780632eba824f14610235578063350e97561461025557600080fd5b3661015657005b600080fd5b34801561016757600080fd5b50600a5461017b906001600160a01b031681565b6040516001600160a01b0390911681526020015b60405180910390f35b3480156101a457600080fd5b50600a546101b990600160a01b900460ff1681565b604051901515815260200161018f565b3480156101d557600080fd5b506101e96101e4366004611e39565b61053f565b6040805192835260ff90911660208301520161018f565b34801561020c57600080fd5b50600b5461022290600160a01b900461ffff1681565b60405161ffff909116815260200161018f565b34801561024157600080fd5b506101b9610250366004611e54565b610677565b34801561026157600080fd5b50610275610270366004611ec6565b6106a6565b005b610275610285366004611f04565b6107a0565b34801561029657600080fd5b50600b5461017b906001600160a01b031681565b6102756102b8366004611f33565b610b41565b3480156102c957600080fd5b506102d2610b60565b60405190815260200161018f565b3480156102ec57600080fd5b506040805180820190915260028152612b1960f11b60208201525b60405161018f9190612019565b34801561032057600080fd5b50610275610b7d565b34801561033557600080fd5b5061027561034436600461204c565b610b91565b34801561035557600080fd5b5060005460015460025460035460045460055460065460075460085461039e986001600160a01b039081169897969560ff8116956101009091048216949093908216929091168a565b604080516001600160a01b039b8c168152602081019a909a528901979097526060880195909552921515608087015290861660a086015260c0850152841660e08401526101008301529091166101208201526101400161018f565b34801561040557600080fd5b5061027561041436600461207f565b610c2e565b34801561042557600080fd5b5061017b610fe1565b34801561043a57600080fd5b5061017b610449366004611e39565b6009602052600090815260409020546001600160a01b031681565b34801561047057600080fd5b50610307604051806040016040528060058152602001640352e302e360dc1b81525081565b3480156104a157600080fd5b5061027561100f565b3480156104b657600080fd5b506102d26104c5366004611f04565b611178565b3480156104d657600080fd5b506102756104e53660046120fe565b6112e3565b3480156104f657600080fd5b50610275610505366004611e39565b61134a565b34801561051657600080fd5b506101b9610525366004611e54565b611385565b34801561053657600080fd5b50610275611439565b6001600160a01b0380821660009081526009602052604081205490918291168061059f5760405162461bcd60e51b815260206004820152600c60248201526b19995959081b9bdd081cd95d60a21b60448201526064015b60405180910390fd5b6000816001600160a01b031663feaf968c6040518163ffffffff1660e01b815260040160a060405180830381865afa1580156105df573d6000803e3d6000fd5b505050506040513d601f19601f820116820180604052508101906106039190612144565b50505091505080826001600160a01b031663313ce5676040518163ffffffff1660e01b8152600401602060405180830381865afa158015610648573d6000803e3d6000fd5b505050506040513d601f19601f8201168201806040525081019061066c9190612194565b935093505050915091565b600a54600090600160a01b900460ff16801561069d5750600a546001600160a01b031615155b90505b92915050565b6106ae6118fe565b6001600160a01b0382166106f25760405162461bcd60e51b815260206004820152600b60248201526a0726563697069656e743d360ac1b6044820152606401610596565b6107d08161ffff1611156107375760405162461bcd60e51b815260206004820152600c60248201526b0cccaca40e8dede40d0d2ced60a31b6044820152606401610596565b600b80546001600160a01b0384166001600160b01b03199091168117600160a01b61ffff851690810291909117909255604051918252907f077c6dc895847ccdbc655db399eacb5db402ee3572d3ce713a8b914861e67936906020015b60405180910390a25050565b6107a8611930565b60045460ff16156107cb5760405162461bcd60e51b8152600401610596906121b7565b6001546003546107db91906121ec565b42106108135760405162461bcd60e51b8152602060048201526007602482015266195e1c1a5c995960ca1b6044820152606401610596565b6008546000906001600160a01b03166108635750348061085e5760405162461bcd60e51b81526020600482015260066024820152650dcde40cae8d60d31b6044820152606401610596565b610918565b6000821161089e5760405162461bcd60e51b81526020600482015260086024820152670616d6f756e743d360c41b6044820152606401610596565b506008546040516323b872dd60e01b815282916001600160a01b0316906323b872dd906108d3903390309086906004016121ff565b6020604051808303816000875af11580156108f2573d6000803e3d6000fd5b505050506040513d601f19601f820116820180604052508101906109169190612223565b505b60055460009015610936576005546109319060016121ec565b61093a565b6002545b9050808210156109765760405162461bcd60e51b81526020600482015260076024820152661b1bddc8189a5960ca1b6044820152606401610596565b60045461010090046001600160a01b031615610abf576008546001600160a01b0316610a3a5760045460055460405160009261010090046001600160a01b031691908381818185875af1925050503d80600081146109f0576040519150601f19603f3d011682016040523d82523d6000602084013e6109f5565b606091505b5050905080610a345760405162461bcd60e51b815260206004820152600b60248201526a1c99599d5b990819985a5b60aa1b6044820152606401610596565b50610abf565b6008546004805460055460405163a9059cbb60e01b81526101009092046001600160a01b0390811693830193909352602482015291169063a9059cbb906044016020604051808303816000875af1158015610a99573d6000803e3d6000fd5b505050506040513d601f19601f82011682018060405250810190610abd9190612223565b505b60048054610100600160a81b031916336101000217905560058290556000610ae683611178565b604080518581526020810183905291925033917fdf8644c0a4c21ed214ce69f395675b3a5fcd1039083daea5058898de40ea3149910160405180910390a2505050610b3e600160008051602061240183398151915255565b50565b610b4961197c565b610b5282611a21565b610b5c8282611a29565b5050565b6000610b6a611aeb565b506000805160206123e183398151915290565b610b856118fe565b610b8f6000611b34565b565b610b996118fe565b6001600160a01b038116610bd75760405162461bcd60e51b815260206004820152600560248201526406167673d360dc1b6044820152606401610596565b6001600160a01b0382811660008181526009602052604080822080546001600160a01b0319169486169485179055517fa8abe0398416476db5b05737cd4da3b3cbde5012d978a6a6c3fd49d3217535369190a35050565b6000610c38611ba5565b805490915060ff600160401b820416159067ffffffffffffffff16600081158015610c605750825b905060008267ffffffffffffffff166001148015610c7d5750303b155b905081158015610c8b575080155b15610ca95760405163f92ee8a960e01b815260040160405180910390fd5b845467ffffffffffffffff191660011785558315610cd357845460ff60401b1916600160401b1785555b610cdc8c611bce565b610ce4611bdf565b610cec611be7565b6001600160a01b038a16610d2a5760405162461bcd60e51b815260206004820152600560248201526404e46543d360dc1b6044820152606401610596565b60008811610d675760405162461bcd60e51b815260206004820152600a60248201526906475726174696f6e3d360b41b6044820152606401610596565b60008711610da65760405162461bcd60e51b815260206004820152600c60248201526b0737461727450726963653d360a41b6044820152606401610596565b6040518061014001604052808c6001600160a01b0316815260200189815260200188815260200142815260200160001515815260200160006001600160a01b03168152602001600081526020018b6001600160a01b031681526020018a8152602001876001600160a01b03168152506000808201518160000160006101000a8154816001600160a01b0302191690836001600160a01b0316021790555060208201518160010155604082015181600201556060820151816003015560808201518160040160006101000a81548160ff02191690831515021790555060a08201518160040160016101000a8154816001600160a01b0302191690836001600160a01b0316021790555060c0820151816005015560e08201518160060160006101000a8154816001600160a01b0302191690836001600160a01b0316021790555061010082015181600701556101208201518160080160006101000a8154816001600160a01b0302191690836001600160a01b03160217905550905050888a6001600160a01b03168c6001600160a01b03167f64ecfe8c1eb065a6b359d391b7c108db395a48029eecb1906c04bf097ab4a307898b8d604051610f85939291906001600160a01b039390931683526020830191909152604082015260600190565b60405180910390a48315610fd357845460ff60401b19168555604051600181527fc7f505b2f371ae2175ee4913f4499e1f2633a7b5936321eed1cdaeb6115181d29060200160405180910390a15b505050505050505050505050565b7f9016d09d72d40fdae2fd8ceac6b6234c7706214fd39c1cd1e609a0528c199300546001600160a01b031690565b611017611930565b6000546001600160a01b03163314806110485750611033610fe1565b6001600160a01b0316336001600160a01b0316145b61107e5760405162461bcd60e51b81526020600482015260076024820152660dcde40c2eae8d60cb1b6044820152606401610596565b60045460ff16156110a15760405162461bcd60e51b8152600401610596906121b7565b60045461010090046001600160a01b0316156110e95760405162461bcd60e51b81526020600482015260076024820152661a185cc8189a5960ca1b6044820152606401610596565b6004805460ff191660011781556006546000546007546040516323b872dd60e01b81526001600160a01b03938416946323b872dd9461112f9430949116929091016121ff565b600060405180830381600087803b15801561114957600080fd5b505af115801561115d573d6000803e3d6000fd5b50505050610b8f600160008051602061240183398151915255565b6008546000906001600160a01b031681806111928361053f565b91509150600082136111d25760405162461bcd60e51b815260206004820152600960248201526862616420707269636560b81b6044820152606401610596565b8160006001600160a01b0385161561124b57846001600160a01b031663313ce5676040518163ffffffff1660e01b8152600401602060405180830381865afa158015611222573d6000803e3d6000fd5b505050506040513d601f19601f820116820180604052508101906112469190612194565b61124e565b60125b60ff16905061125d8288612240565b9550600861126e60ff8516836121ec565b106112a857600861128260ff8516836121ec565b61128c9190612257565b61129790600a61234e565b6112a1908761235a565b95506112d9565b60ff83166112b7826008612257565b6112c19190612257565b6112cc90600a61234e565b6112d69087612240565b95505b5050505050919050565b6112eb6118fe565b600a80546001600160a01b0384166001600160a81b03199091168117600160a01b84151590810291909117909255604051918252907fd0041caf11500ef1875d2e68c4542d36e36d036d299528c99b9d4d2fb82b2df990602001610794565b6113526118fe565b6001600160a01b03811661137c57604051631e4fbdf760e01b815260006004820152602401610596565b610b3e81611b34565b600a54600090600160a01b900460ff1680156113ab5750600a546001600160a01b031615155b6113e75760405162461bcd60e51b815260206004820152600d60248201526c18d8da5c08191a5cd8589b1959609a1b6044820152606401610596565b600a546040516001600160a01b03909116907fb1db617b086e241de0a5f986f88317d011902fc2833686af97f5f27b2f76d23a90611428908690869061237c565b60405180910390a250600192915050565b611441611930565b60045460ff16156114645760405162461bcd60e51b8152600401610596906121b7565b60015460035461147491906121ec565b4210156114af5760405162461bcd60e51b81526020600482015260096024820152681b9bdd08195b99195960ba1b6044820152606401610596565b6004805460ff19166001179081905561010090046001600160a01b0316611578576006546000546007546040516323b872dd60e01b81526001600160a01b03938416936323b872dd9361150b93309392909116916004016121ff565b600060405180830381600087803b15801561152557600080fd5b505af1158015611539573d6000803e3d6000fd5b5050604051600080825292507fdaec4582d5d9595688c8c98545fdd1c696d41c6aeaeb636737e84ed2f5c00eda915060200160405180910390a26118e7565b600654600480546007546040516323b872dd60e01b81526001600160a01b03948516946323b872dd946115b794309461010090910490921692016121ff565b600060405180830381600087803b1580156115d157600080fd5b505af11580156115e5573d6000803e3d6000fd5b5050600554600b54909250600091506001600160a01b0316158015906116175750600b54600160a01b900461ffff1615155b611622576000611648565b600b546127109061163e90600160a01b900461ffff1684612240565b611648919061235a565b905060006116568284612257565b6008549091506001600160a01b031661179e57811561170357600b546040516000916001600160a01b03169084908381818185875af1925050503d80600081146116bc576040519150601f19603f3d011682016040523d82523d6000602084013e6116c1565b606091505b50509050806117015760405162461bcd60e51b815260206004820152600c60248201526b1c185e481999594819985a5b60a21b6044820152606401610596565b505b600080546040516001600160a01b039091169083908381818185875af1925050503d8060008114611750576040519150601f19603f3d011682016040523d82523d6000602084013e611755565b606091505b50509050806117985760405162461bcd60e51b815260206004820152600f60248201526e1c185e481cd95b1b195c8819985a5b608a1b6044820152606401610596565b5061189a565b811561181f57600854600b5460405163a9059cbb60e01b81526001600160a01b0391821660048201526024810185905291169063a9059cbb906044016020604051808303816000875af11580156117f9573d6000803e3d6000fd5b505050506040513d601f19601f8201168201806040525081019061181d9190612223565b505b60085460005460405163a9059cbb60e01b81526001600160a01b0391821660048201526024810184905291169063a9059cbb906044016020604051808303816000875af1158015611874573d6000803e3d6000fd5b505050506040513d601f19601f820116820180604052508101906118989190612223565b505b6004546005546040519081526101009091046001600160a01b0316907fdaec4582d5d9595688c8c98545fdd1c696d41c6aeaeb636737e84ed2f5c00eda9060200160405180910390a25050505b610b8f600160008051602061240183398151915255565b33611907610fe1565b6001600160a01b031614610b8f5760405163118cdaa760e01b8152336004820152602401610596565b60008051602061240183398151915280546001190161196257604051633ee5aeb560e01b815260040160405180910390fd5b60029055565b600160008051602061240183398151915255565b306001600160a01b037f0000000000000000000000000000000000000000000000000000000000000000161480611a0357507f00000000000000000000000000000000000000000000000000000000000000006001600160a01b03166119f76000805160206123e1833981519152546001600160a01b031690565b6001600160a01b031614155b15610b8f5760405163703e46dd60e11b815260040160405180910390fd5b610b3e6118fe565b816001600160a01b03166352d1902d6040518163ffffffff1660e01b8152600401602060405180830381865afa925050508015611a83575060408051601f3d908101601f19168201909252611a80918101906123ab565b60015b611aab57604051634c9c8ce360e01b81526001600160a01b0383166004820152602401610596565b6000805160206123e18339815191528114611adc57604051632a87526960e21b815260048101829052602401610596565b611ae68383611bf7565b505050565b306001600160a01b037f00000000000000000000000000000000000000000000000000000000000000001614610b8f5760405163703e46dd60e11b815260040160405180910390fd5b7f9016d09d72d40fdae2fd8ceac6b6234c7706214fd39c1cd1e609a0528c19930080546001600160a01b031981166001600160a01b03848116918217845560405192169182907f8be0079c531659141344cd1fd0a4f28419497f9722a3daafe3b4186f6b6457e090600090a3505050565b6000807ff0c57e16840df040f15088dc2f81fe391c3923bec73e23a9662efc9c229c6a006106a0565b611bd6611c4d565b610b3e81611c72565b610b8f611c4d565b611bef611c4d565b610b8f611c7a565b611c0082611c82565b6040516001600160a01b038316907fbc7cd75a20ee27fd9adebab32041f755214dbc6bffa90cc0225b39da2e5c2d3b90600090a2805115611c4557611ae68282611ce7565b610b5c611d5d565b611c55611d7c565b610b8f57604051631afcd79f60e31b815260040160405180910390fd5b611352611c4d565b611968611c4d565b806001600160a01b03163b600003611cb857604051634c9c8ce360e01b81526001600160a01b0382166004820152602401610596565b6000805160206123e183398151915280546001600160a01b0319166001600160a01b0392909216919091179055565b6060600080846001600160a01b031684604051611d0491906123c4565b600060405180830381855af49150503d8060008114611d3f576040519150601f19603f3d011682016040523d82523d6000602084013e611d44565b606091505b5091509150611d54858383611d96565b95945050505050565b3415610b8f5760405163b398979f60e01b815260040160405180910390fd5b6000611d86611ba5565b54600160401b900460ff16919050565b606082611dab57611da682611df5565b611dee565b8151158015611dc257506001600160a01b0384163b155b15611deb57604051639996b31560e01b81526001600160a01b0385166004820152602401610596565b50805b9392505050565b805115611e0457805160208201fd5b60405163d6bda27560e01b815260040160405180910390fd5b80356001600160a01b0381168114611e3457600080fd5b919050565b600060208284031215611e4b57600080fd5b61069d82611e1d565b60008060208385031215611e6757600080fd5b823567ffffffffffffffff80821115611e7f57600080fd5b818501915085601f830112611e9357600080fd5b813581811115611ea257600080fd5b866020828501011115611eb457600080fd5b60209290920196919550909350505050565b60008060408385031215611ed957600080fd5b611ee283611e1d565b9150602083013561ffff81168114611ef957600080fd5b809150509250929050565b600060208284031215611f1657600080fd5b5035919050565b634e487b7160e01b600052604160045260246000fd5b60008060408385031215611f4657600080fd5b611f4f83611e1d565b9150602083013567ffffffffffffffff80821115611f6c57600080fd5b818501915085601f830112611f8057600080fd5b813581811115611f9257611f92611f1d565b604051601f8201601f19908116603f01168101908382118183101715611fba57611fba611f1d565b81604052828152886020848701011115611fd357600080fd5b8260208601602083013760006020848301015280955050505050509250929050565b60005b83811015612010578181015183820152602001611ff8565b50506000910152565b6020815260008251806020840152612038816040850160208701611ff5565b601f01601f19169190910160400192915050565b6000806040838503121561205f57600080fd5b61206883611e1d565b915061207660208401611e1d565b90509250929050565b600080600080600080600060e0888a03121561209a57600080fd5b6120a388611e1d565b96506120b160208901611e1d565b95506120bf60408901611e1d565b9450606088013593506080880135925060a088013591506120e260c08901611e1d565b905092959891949750929550565b8015158114610b3e57600080fd5b6000806040838503121561211157600080fd5b61211a83611e1d565b91506020830135611ef9816120f0565b805169ffffffffffffffffffff81168114611e3457600080fd5b600080600080600060a0868803121561215c57600080fd5b6121658661212a565b94506020860151935060408601519250606086015191506121886080870161212a565b90509295509295909350565b6000602082840312156121a657600080fd5b815160ff81168114611dee57600080fd5b602080825260059082015264195b99195960da1b604082015260600190565b634e487b7160e01b600052601160045260246000fd5b808201808211156106a0576106a06121d6565b6001600160a01b039384168152919092166020820152604081019190915260600190565b60006020828403121561223557600080fd5b8151611dee816120f0565b80820281158282048414176106a0576106a06121d6565b818103818111156106a0576106a06121d6565b600181815b808511156122a557816000190482111561228b5761228b6121d6565b8085161561229857918102915b93841c939080029061226f565b509250929050565b6000826122bc575060016106a0565b816122c9575060006106a0565b81600181146122df57600281146122e957612305565b60019150506106a0565b60ff8411156122fa576122fa6121d6565b50506001821b6106a0565b5060208310610133831016604e8410600b8410161715612328575081810a6106a0565b612332838361226a565b8060001904821115612346576123466121d6565b029392505050565b600061069d83836122ad565b60008261237757634e487b7160e01b600052601260045260246000fd5b500490565b60208152816020820152818360408301376000818301604090810191909152601f909201601f19160101919050565b6000602082840312156123bd57600080fd5b5051919050565b600082516123d6818460208701611ff5565b919091019291505056fe360894a13ba1a3210667c828492db98dca3e2076cc3735a920a3ca505d382bbc9b779b17422d0df92223018b32b4d1fa46e071723d6817e2486d003becc55f00a2646970667358221220c8dcc76371f6f64b070790b707efe04d134fecd9da84c2a0302436014d8664ee64736f6c63430008180033",
  "linkReferences": {},
  "deployedLinkReferences": {}
}