{
  "_format": "hh-sol-artifact-1",
  "contractName": "AuctionImplementation",
  "sourceName": "contracts/AuctionImplementation.sol",
  "abi": [
    {
      "inputs": [
        {
          "internalType": "address",
          "name": "target",
          "type": "address"
        }
      ],
      "name": "AddressEmptyCode",
      "type": "error"
    },
    {
      "inputs": [
        {
          "internalType": "address",
          "name": "implementation",
          "type": "address"
        }
      ],
      "name": "ERC1967InvalidImplementation",
      "type": "error"
    },
    {
      "inputs": [],
      "name": "ERC1967NonPayable",
      "type": "error"
    },
    {
      "inputs": [],
      "name": "FailedCall",
      "type": "error"
    },
    {
      "inputs": [],
      "name": "InvalidInitialization",
      "type": "error"
    },
    {
      "inputs": [],
      "name": "NotInitializing",
      "type": "error"
    },
    {
      "inputs": [
        {
          "internalType": "address",
          "name": "owner",
          "type": "address"
        }
      ],
      "name": "OwnableInvalidOwner",
      "type": "error"
    },
    {
      "inputs": [
        {
          "internalType": "address",
          "name": "account",
          "type": "address"
        }
      ],
      "name": "OwnableUnauthorizedAccount",
      "type": "error"
    },
    {
      "inputs": [],
      "name": "ReentrancyGuardReentrantCall",
      "type": "error"
    },
    {
      "inputs": [],
      "name": "UUPSUnauthorizedCallContext",
      "type": "error"
    },
    {
      "inputs": [
        {
          "internalType": "bytes32",
          "name": "slot",
          "type": "bytes32"
        }
      ],
      "name": "UUPSUnsupportedProxiableUUID",
      "type": "error"
    },
    {
      "anonymous": false,
      "inputs": [
        {
          "indexed": true,
          "internalType": "address",
          "name": "seller",
          "type": "address"
        },
        {
          "indexed": true,
          "internalType": "address",
          "name": "nft",
          "type": "address"
        },
        {
          "indexed": true,
          "internalType": "uint256",
          "name": "tokenId",
          "type": "uint256"
        },
        {
          "indexed": false,
          "internalType": "address",
          "name": "payToken",
          "type": "address"
        },
        {
          "indexed": false,
          "internalType": "uint256",
          "name": "startPrice",
          "type": "uint256"
        },
        {
          "indexed": false,
          "internalType": "uint256",
          "name": "duration",
          "type": "uint256"
        }
      ],
      "name": "AuctionCreated",
      "type": "event"
    },
    {
      "anonymous": false,
      "inputs": [
        {
          "indexed": true,
          "internalType": "address",
          "name": "winner",
          "type": "address"
        },
        {
          "indexed": false,
          "internalType": "uint256",
          "name": "amount",
          "type": "uint256"
        }
      ],
      "name": "AuctionEnded",
      "type": "event"
    },
    {
      "anonymous": false,
      "inputs": [
        {
          "indexed": true,
          "internalType": "address",
          "name": "bidder",
          "type": "address"
        },
        {
          "indexed": false,
          "internalType": "uint256",
          "name": "amount",
          "type": "uint256"
        },
        {
          "indexed": false,
          "internalType": "uint256",
          "name": "amountUsd",
          "type": "uint256"
        }
      ],
      "name": "BidPlaced",
      "type": "event"
    },
    {
      "anonymous": false,
      "inputs": [
        {
          "indexed": true,
          "internalType": "address",
          "name": "router",
          "type": "address"
        },
        {
          "indexed": false,
          "internalType": "bytes",
          "name": "payload",
          "type": "bytes"
        }
      ],
      "name": "CcipBidRequested",
      "type": "event"
    },
    {
      "anonymous": false,
      "inputs": [
        {
          "indexed": true,
          "internalType": "address",
          "name": "router",
          "type": "address"
        },
        {
          "indexed": false,
          "internalType": "bool",
          "name": "enabled",
          "type": "bool"
        }
      ],
      "name": "CcipConfigUpdated",
      "type": "event"
    },
    {
      "anonymous": false,
      "inputs": [
        {
          "indexed": true,
          "internalType": "address",
          "name": "recipient",
          "type": "address"
        },
        {
          "indexed": false,
          "internalType": "uint16",
          "name": "feeBps",
          "type": "uint16"
        }
      ],
      "name": "FeeConfigUpdated",
      "type": "event"
    },
    {
      "anonymous": false,
      "inputs": [
        {
          "indexed": false,
          "internalType": "uint64",
          "name": "version",
          "type": "uint64"
        }
      ],
      "name": "Initialized",
      "type": "event"
    },
    {
      "anonymous": false,
      "inputs": [
        {
          "indexed": true,
          "internalType": "address",
          "name": "previousOwner",
          "type": "address"
        },
        {
          "indexed": true,
          "internalType": "address",
          "name": "newOwner",
          "type": "address"
        }
      ],
      "name": "OwnershipTransferred",
      "type": "event"
    },
    {
      "anonymous": false,
      "inputs": [
        {
          "indexed": true,
          "internalType": "address",
          "name": "token",
          "type": "address"
        },
        {
          "indexed": true,
          "internalType": "address",
          "name": "aggregator",
          "type": "address"
        }
      ],
      "name": "PriceFeedUpdated",
      "type": "event"
    },
    {
      "anonymous": false,
      "inputs": [
        {
          "indexed": true,
          "internalType": "address",
          "name": "implementation",
          "type": "address"
        }
      ],
      "name": "Upgraded",
      "type": "event"
    },
    {
      "inputs": [],
      "name": "UPGRADE_INTERFACE_VERSION",
      "outputs": [
        {
          "internalType": "string",
          "name": "",
          "type": "string"
        }
      ],
      "stateMutability": "view",
      "type": "function"
    },
    {
      "inputs": [],
      "name": "auction",
      "outputs": [
        {
          "internalType": "address",
          "name": "seller",
          "type": "address"
        },
        {
          "internalType": "uint256",
          "name": "duration",
          "type": "uint256"
        },
        {
          "internalType": "uint256",
          "name": "startPrice",
          "type": "uint256"
        },
        {
          "internalType": "uint256",
          "name": "startTime",
          "type": "uint256"
        },
        {
          "internalType": "bool",
          "name": "ended",
          "type": "bool"
        },
        {
          "internalType": "address",
          "name": "highestBidder",
          "type": "address"
        },
        {
          "internalType": "uint256",
          "name": "highestBid",
          "type": "uint256"
        },
        {
          "internalType": "address",
          "name": "nftContract",
          "type": "address"
        },
        {
          "internalType": "uint256",
          "name": "tokenId",
          "type": "uint256"
        },
        {
          "internalType": "address",
          "name": "payTokenAddress",
          "type": "address"
        }
      ],
      "stateMutability": "view",
      "type": "function"
    },
    {
      "inputs": [
        {
          "internalType": "uint256",
          "name": "amount",
          "type": "uint256"
        }
      ],
      "name": "bid",
      "outputs": [],
      "stateMutability": "payable",
      "type": "function"
    },
    {
      "inputs": [],
      "name": "cancel",
      "outputs": [],
      "stateMutability": "nonpayable",
      "type": "function"
    },
    {
      "inputs": [],
      "name": "ccipEnabled",
      "outputs": [
        {
          "internalType": "bool",
          "name": "",
          "type": "bool"
        }
      ],
      "stateMutability": "view",
      "type": "function"
    },
    {
      "inputs": [],
      "name": "ccipRouter",
      "outputs": [
        {
          "internalType": "address",
          "name": "",
          "type": "address"
        }
      ],
      "stateMutability": "view",
      "type": "function"
    },
    {
      "inputs": [],
      "name": "endAuction",
      "outputs": [],
      "stateMutability": "nonpayable",
      "type": "function"
    },
    {
      "inputs": [],
      "name": "feeBps",
      "outputs": [
        {
          "internalType": "uint16",
          "name": "",
          "type": "uint16"
        }
      ],
      "stateMutability": "view",
      "type": "function"
    },
    {
      "inputs": [],
      "name": "feeRecipient",
      "outputs": [
        {
          "internalType": "address",
          "name": "",
          "type": "address"
        }
      ],
      "stateMutability": "view",
      "type": "function"
    },
    {
      "inputs": [
        {
          "internalType": "address",
          "name": "token",
          "type": "address"
        }
      ],
      "name": "getLatestPrice",
      "outputs": [
        {
          "internalType": "int256",
          "name": "price",
          "type": "int256"
        },
        {
          "internalType": "uint8",
          "name": "decimals",
          "type": "uint8"
        }
      ],
      "stateMutability": "view",
      "type": "function"
    },
    {
      "inputs": [
        {
          "internalType": "address",
          "name": "owner_",
          "type": "address"
        },
        {
          "internalType": "address",
          "name": "seller",
          "type": "address"
        },
        {
          "internalType": "address",
          "name": "nftContract",
          "type": "address"
        },
        {
          "internalType": "uint256",
          "name": "tokenId",
          "type": "uint256"
        },
        {
          "internalType": "uint256",
          "name": "duration",
          "type": "uint256"
        },
        {
          "internalType": "uint256",
          "name": "startPrice",
          "type": "uint256"
        },
        {
          "internalType": "address",
          "name": "payTokenAddress",
          "type": "address"
        }
      ],
      "name": "initialize",
      "outputs": [],
      "stateMutability": "nonpayable",
      "type": "function"
    },
    {
      "inputs": [],
      "name": "owner",
      "outputs": [
        {
          "internalType": "address",
          "name": "",
          "type": "address"
        }
      ],
      "stateMutability": "view",
      "type": "function"
    },
    {
      "inputs": [
        {
          "internalType": "address",
          "name": "",
          "type": "address"
        }
      ],
      "name": "priceFeeds",
      "outputs": [
        {
          "internalType": "contract AggregatorV3Interface",
          "name": "",
          "type": "address"
        }
      ],
      "stateMutability": "view",
      "type": "function"
    },
    {
      "inputs": [],
      "name": "proxiableUUID",
      "outputs": [
        {
          "internalType": "bytes32",
          "name": "",
          "type": "bytes32"
        }
      ],
      "stateMutability": "view",
      "type": "function"
    },
    {
      "inputs": [
        {
          "internalType": "uint256",
          "name": "amount",
          "type": "uint256"
        }
      ],
      "name": "quoteBidInUsd",
      "outputs": [
        {
          "internalType": "uint256",
          "name": "usdAmountE8",
          "type": "uint256"
        }
      ],
      "stateMutability": "view",
      "type": "function"
    },
    {
      "inputs": [],
      "name": "renounceOwnership",
      "outputs": [],
      "stateMutability": "nonpayable",
      "type": "function"
    },
    {
      "inputs": [
        {
          "internalType": "bytes",
          "name": "",
          "type": "bytes"
        }
      ],
      "name": "sendCrossChainBid",
      "outputs": [
        {
          "internalType": "bool",
          "name": "",
          "type": "bool"
        }
      ],
      "stateMutability": "view",
      "type": "function"
    },
    {
      "inputs": [
        {
          "internalType": "bytes",
          "name": "payload",
          "type": "bytes"
        }
      ],
      "name": "sendCrossChainBidRequest",
      "outputs": [
        {
          "internalType": "bool",
          "name": "",
          "type": "bool"
        }
      ],
      "stateMutability": "nonpayable",
      "type": "function"
    },
    {
      "inputs": [
        {
          "internalType": "address",
          "name": "router",
          "type": "address"
        },
        {
          "internalType": "bool",
          "name": "enabled",
          "type": "bool"
        }
      ],
      "name": "setCcipConfig",
      "outputs": [],
      "stateMutability": "nonpayable",
      "type": "function"
    },
    {
      "inputs": [
        {
          "internalType": "address",
          "name": "recipient",
          "type": "address"
        },
        {
          "internalType": "uint16",
          "name": "feeBps_",
          "type": "uint16"
        }
      ],
      "name": "setFeeConfig",
      "outputs": [],
      "stateMutability": "nonpayable",
      "type": "function"
    },
    {
      "inputs": [
        {
          "internalType": "address",
          "name": "token",
          "type": "address"
        },
        {
          "internalType": "address",
          "name": "aggregator",
          "type": "address"
        }
      ],
      "name": "setPriceFeed",
      "outputs": [],
      "stateMutability": "nonpayable",
      "type": "function"
    },
    {
      "inputs": [
        {
          "internalType": "address",
          "name": "newOwner",
          "type": "address"
        }
      ],
      "name": "transferOwnership",
      "outputs": [],
      "stateMutability": "nonpayable",
      "type": "function"
    },
    {
      "inputs": [
        {
          "internalType": "address",
          "name": "newImplementation",
          "type": "address"
        },
        {
          "internalType": "bytes",
          "name": "data",
          "type": "bytes"
        }
      ],
      "name": "upgradeToAndCall",
      "outputs": [],
      "stateMutability": "payable",
      "type": "function"
    },
    {
      "stateMutability": "payable",
      "type": "receive"
    }
  ],
  "bytecode": "0x60a06040523060805234801561001457600080fd5b5060805161242461003e600039600081816119550152818161197e0152611ac401526124246000f3fe6080604052600436106101445760003560e01c806376e11286116100b6578063ea8a1af01161006f578063ea8a1af014610463578063ecaef8fa14610478578063f2b3a5ac14610498578063f2fde38b146104b8578063fe0d7514146104d8578063fe67a54b146104f857600080fd5b806376e11286146102ea5780637d9f6db51461030a5780638754bbc6146103ba5780638da5cb5b146103da5780639dcb511a146103ef578063ad3cb1cc1461042557600080fd5b8063350e975611610108578063350e97561461024a578063454a2ab31461026c578063469048401461027f5780634f1ef2861461029f57806352d1902d146102b2578063715018a6146102d557600080fd5b80630de22984146101505780630ff2d0031461018d57806316345f18146101be57806324a9d853146101f55780632eba824f1461022a57600080fd5b3661014b57005b600080fd5b34801561015c57600080fd5b50600a54610170906001600160a01b031681565b6040516001600160a01b0390911681526020015b60405180910390f35b34801561019957600080fd5b50600a546101ae90600160a01b900460ff1681565b6040519015158152602001610184565b3480156101ca57600080fd5b506101de6101d9366004611e07565b61050d565b6040805192835260ff909116602083015201610184565b34801561020157600080fd5b50600b5461021790600160a01b900461ffff1681565b60405161ffff9091168152602001610184565b34801561023657600080fd5b506101ae610245366004611e22565b610645565b34801561025657600080fd5b5061026a610265366004611e94565b610674565b005b61026a61027a366004611ed2565b61076e565b34801561028b57600080fd5b50600b54610170906001600160a01b031681565b61026a6102ad366004611f01565b610b0f565b3480156102be57600080fd5b506102c7610b2e565b604051908152602001610184565b3480156102e157600080fd5b5061026a610b4b565b3480156102f657600080fd5b5061026a610305366004611fc3565b610b5f565b34801561031657600080fd5b5060005460015460025460035460045460055460065460075460085461035f986001600160a01b039081169897969560ff8116956101009091048216949093908216929091168a565b604080516001600160a01b039b8c168152602081019a909a528901979097526060880195909552921515608087015290861660a086015260c0850152841660e084015261010083015290911661012082015261014001610184565b3480156103c657600080fd5b5061026a6103d5366004611ff6565b610bfc565b3480156103e657600080fd5b50610170610faf565b3480156103fb57600080fd5b5061017061040a366004611e07565b6009602052600090815260409020546001600160a01b031681565b34801561043157600080fd5b50610456604051806040016040528060058152602001640352e302e360dc1b81525081565b604051610184919061208b565b34801561046f57600080fd5b5061026a610fdd565b34801561048457600080fd5b506102c7610493366004611ed2565b611146565b3480156104a457600080fd5b5061026a6104b33660046120cc565b6112b1565b3480156104c457600080fd5b5061026a6104d3366004611e07565b611318565b3480156104e457600080fd5b506101ae6104f3366004611e22565b611353565b34801561050457600080fd5b5061026a611407565b6001600160a01b0380821660009081526009602052604081205490918291168061056d5760405162461bcd60e51b815260206004820152600c60248201526b19995959081b9bdd081cd95d60a21b60448201526064015b60405180910390fd5b6000816001600160a01b031663feaf968c6040518163ffffffff1660e01b815260040160a060405180830381865afa1580156105ad573d6000803e3d6000fd5b505050506040513d601f19601f820116820180604052508101906105d19190612112565b50505091505080826001600160a01b031663313ce5676040518163ffffffff1660e01b8152600401602060405180830381865afa158015610616573d6000803e3d6000fd5b505050506040513d601f19601f8201168201806040525081019061063a9190612162565b935093505050915091565b600a54600090600160a01b900460ff16801561066b5750600a546001600160a01b031615155b90505b92915050565b61067c6118cc565b6001600160a01b0382166106c05760405162461bcd60e51b815260206004820152600b60248201526a0726563697069656e743d360ac1b6044820152606401610564565b6107d08161ffff1611156107055760405162461bcd60e51b815260206004820152600c60248201526b0cccaca40e8dede40d0d2ced60a31b6044820152606401610564565b600b80546001600160a01b0384166001600160b01b03199091168117600160a01b61ffff851690810291909117909255604051918252907f077c6dc895847ccdbc655db399eacb5db402ee3572d3ce713a8b914861e67936906020015b60405180910390a25050565b6107766118fe565b60045460ff16156107995760405162461bcd60e51b815260040161056490612185565b6001546003546107a991906121ba565b42106107e15760405162461bcd60e51b8152602060048201526007602482015266195e1c1a5c995960ca1b6044820152606401610564565b6008546000906001600160a01b03166108315750348061082c5760405162461bcd60e51b81526020600482015260066024820152650dcde40cae8d60d31b6044820152606401610564565b6108e6565b6000821161086c5760405162461bcd60e51b81526020600482015260086024820152670616d6f756e743d360c41b6044820152606401610564565b506008546040516323b872dd60e01b815282916001600160a01b0316906323b872dd906108a1903390309086906004016121cd565b6020604051808303816000875af11580156108c0573d6000803e3d6000fd5b505050506040513d601f19601f820116820180604052508101906108e491906121f1565b505b60055460009015610904576005546108ff9060016121ba565b610908565b6002545b9050808210156109445760405162461bcd60e51b81526020600482015260076024820152661b1bddc8189a5960ca1b6044820152606401610564565b60045461010090046001600160a01b031615610a8d576008546001600160a01b0316610a085760045460055460405160009261010090046001600160a01b031691908381818185875af1925050503d80600081146109be576040519150601f19603f3d011682016040523d82523d6000602084013e6109c3565b606091505b5050905080610a025760405162461bcd60e51b815260206004820152600b60248201526a1c99599d5b990819985a5b60aa1b6044820152606401610564565b50610a8d565b6008546004805460055460405163a9059cbb60e01b81526101009092046001600160a01b0390811693830193909352602482015291169063a9059cbb906044016020604051808303816000875af1158015610a67573d6000803e3d6000fd5b505050506040513d601f19601f82011682018060405250810190610a8b91906121f1565b505b60048054610100600160a81b031916336101000217905560058290556000610ab483611146565b604080518581526020810183905291925033917fdf8644c0a4c21ed214ce69f395675b3a5fcd1039083daea5058898de40ea3149910160405180910390a2505050610b0c60016000805160206123cf83398151915255565b50565b610b1761194a565b610b20826119ef565b610b2a82826119f7565b5050565b6000610b38611ab9565b506000805160206123af83398151915290565b610b536118cc565b610b5d6000611b02565b565b610b676118cc565b6001600160a01b038116610ba55760405162461bcd60e51b815260206004820152600560248201526406167673d360dc1b6044820152606401610564565b6001600160a01b0382811660008181526009602052604080822080546001600160a01b0319169486169485179055517fa8abe0398416476db5b05737cd4da3b3cbde5012d978a6a6c3fd49d3217535369190a35050565b6000610c06611b73565b805490915060ff600160401b820416159067ffffffffffffffff16600081158015610c2e5750825b905060008267ffffffffffffffff166001148015610c4b5750303b155b905081158015610c59575080155b15610c775760405163f92ee8a960e01b815260040160405180910390fd5b845467ffffffffffffffff191660011785558315610ca157845460ff60401b1916600160401b1785555b610caa8c611b9c565b610cb2611bad565b610cba611bb5565b6001600160a01b038a16610cf85760405162461bcd60e51b815260206004820152600560248201526404e46543d360dc1b6044820152606401610564565b60008811610d355760405162461bcd60e51b815260206004820152600a60248201526906475726174696f6e3d360b41b6044820152606401610564565b60008711610d745760405162461bcd60e51b815260206004820152600c60248201526b0737461727450726963653d360a41b6044820152606401610564565b6040518061014001604052808c6001600160a01b0316815260200189815260200188815260200142815260200160001515815260200160006001600160a01b03168152602001600081526020018b6001600160a01b031681526020018a8152602001876001600160a01b03168152506000808201518160000160006101000a8154816001600160a01b0302191690836001600160a01b0316021790555060208201518160010155604082015181600201556060820151816003015560808201518160040160006101000a81548160ff02191690831515021790555060a08201518160040160016101000a8154816001600160a01b0302191690836001600160a01b0316021790555060c0820151816005015560e08201518160060160006101000a8154816001600160a01b0302191690836001600160a01b0316021790555061010082015181600701556101208201518160080160006101000a8154816001600160a01b0302191690836001600160a01b03160217905550905050888a6001600160a01b03168c6001600160a01b03167f64ecfe8c1eb065a6b359d391b7c108db395a48029eecb1906c04bf097ab4a307898b8d604051610f53939291906001600160a01b039390931683526020830191909152604082015260600190565b60405180910390a48315610fa157845460ff60401b19168555604051600181527fc7f505b2f371ae2175ee4913f4499e1f2633a7b5936321eed1cdaeb6115181d29060200160405180910390a15b505050505050505050505050565b7f9016d09d72d40fdae2fd8ceac6b6234c7706214fd39c1cd1e609a0528c199300546001600160a01b031690565b610fe56118fe565b6000546001600160a01b03163314806110165750611001610faf565b6001600160a01b0316336001600160a01b0316145b61104c5760405162461bcd60e51b81526020600482015260076024820152660dcde40c2eae8d60cb1b6044820152606401610564565b60045460ff161561106f5760405162461bcd60e51b815260040161056490612185565b60045461010090046001600160a01b0316156110b75760405162461bcd60e51b81526020600482015260076024820152661a185cc8189a5960ca1b6044820152606401610564565b6004805460ff191660011781556006546000546007546040516323b872dd60e01b81526001600160a01b03938416946323b872dd946110fd9430949116929091016121cd565b600060405180830381600087803b15801561111757600080fd5b505af115801561112b573d6000803e3d6000fd5b50505050610b5d60016000805160206123cf83398151915255565b6008546000906001600160a01b031681806111608361050d565b91509150600082136111a05760405162461bcd60e51b815260206004820152600960248201526862616420707269636560b81b6044820152606401610564565b8160006001600160a01b0385161561121957846001600160a01b031663313ce5676040518163ffffffff1660e01b8152600401602060405180830381865afa1580156111f0573d6000803e3d6000fd5b505050506040513d601f19601f820116820180604052508101906112149190612162565b61121c565b60125b60ff16905061122b828861220e565b9550600861123c60ff8516836121ba565b1061127657600861125060ff8516836121ba565b61125a9190612225565b61126590600a61231c565b61126f9087612328565b95506112a7565b60ff8316611285826008612225565b61128f9190612225565b61129a90600a61231c565b6112a4908761220e565b95505b5050505050919050565b6112b96118cc565b600a80546001600160a01b0384166001600160a81b03199091168117600160a01b84151590810291909117909255604051918252907fd0041caf11500ef1875d2e68c4542d36e36d036d299528c99b9d4d2fb82b2df990602001610762565b6113206118cc565b6001600160a01b03811661134a57604051631e4fbdf760e01b815260006004820152602401610564565b610b0c81611b02565b600a54600090600160a01b900460ff1680156113795750600a546001600160a01b031615155b6113b55760405162461bcd60e51b815260206004820152600d60248201526c18d8da5c08191a5cd8589b1959609a1b6044820152606401610564565b600a546040516001600160a01b03909116907fb1db617b086e241de0a5f986f88317d011902fc2833686af97f5f27b2f76d23a906113f6908690869061234a565b60405180910390a250600192915050565b61140f6118fe565b60045460ff16156114325760405162461bcd60e51b815260040161056490612185565b60015460035461144291906121ba565b42101561147d5760405162461bcd60e51b81526020600482015260096024820152681b9bdd08195b99195960ba1b6044820152606401610564565b6004805460ff19166001179081905561010090046001600160a01b0316611546576006546000546007546040516323b872dd60e01b81526001600160a01b03938416936323b872dd936114d993309392909116916004016121cd565b600060405180830381600087803b1580156114f357600080fd5b505af1158015611507573d6000803e3d6000fd5b5050604051600080825292507fdaec4582d5d9595688c8c98545fdd1c696d41c6aeaeb636737e84ed2f5c00eda915060200160405180910390a26118b5565b600654600480546007546040516323b872dd60e01b81526001600160a01b03948516946323b872dd9461158594309461010090910490921692016121cd565b600060405180830381600087803b15801561159f57600080fd5b505af11580156115b3573d6000803e3d6000fd5b5050600554600b54909250600091506001600160a01b0316158015906115e55750600b54600160a01b900461ffff1615155b6115f0576000611616565b600b546127109061160c90600160a01b900461ffff168461220e565b6116169190612328565b905060006116248284612225565b6008549091506001600160a01b031661176c5781156116d157600b546040516000916001600160a01b03169084908381818185875af1925050503d806000811461168a576040519150601f19603f3d011682016040523d82523d6000602084013e61168f565b606091505b50509050806116cf5760405162461bcd60e51b815260206004820152600c60248201526b1c185e481999594819985a5b60a21b6044820152606401610564565b505b600080546040516001600160a01b039091169083908381818185875af1925050503d806000811461171e576040519150601f19603f3d011682016040523d82523d6000602084013e611723565b606091505b50509050806117665760405162461bcd60e51b815260206004820152600f60248201526e1c185e481cd95b1b195c8819985a5b608a1b6044820152606401610564565b50611868565b81156117ed57600854600b5460405163a9059cbb60e01b81526001600160a01b0391821660048201526024810185905291169063a9059cbb906044016020604051808303816000875af11580156117c7573d6000803e3d6000fd5b505050506040513d601f19601f820116820180604052508101906117eb91906121f1565b505b60085460005460405163a9059cbb60e01b81526001600160a01b0391821660048201526024810184905291169063a9059cbb906044016020604051808303816000875af1158015611842573d6000803e3d6000fd5b505050506040513d601f19601f8201168201806040525081019061186691906121f1565b505b6004546005546040519081526101009091046001600160a01b0316907fdaec4582d5d9595688c8c98545fdd1c696d41c6aeaeb636737e84ed2f5c00eda9060200160405180910390a25050505b610b5d60016000805160206123cf83398151915255565b336118d5610faf565b6001600160a01b031614610b5d5760405163118cdaa760e01b8152336004820152602401610564565b6000805160206123cf83398151915280546001190161193057604051633ee5aeb560e01b815260040160405180910390fd5b60029055565b60016000805160206123cf83398151915255565b306001600160a01b037f00000000000000000000000000000000000000000000000000000000000000001614806119d157507f00000000000000000000000000000000000000000000000000000000000000006001600160a01b03166119c56000805160206123af833981519152546001600160a01b031690565b6001600160a01b031614155b15610b5d5760405163703e46dd60e11b815260040160405180910390fd5b610b0c6118cc565b816001600160a01b03166352d1902d6040518163ffffffff1660e01b8152600401602060405180830381865afa925050508015611a51575060408051601f3d908101601f19168201909252611a4e91810190612379565b60015b611a7957604051634c9c8ce360e01b81526001600160a01b0383166004820152602401610564565b6000805160206123af8339815191528114611aaa57604051632a87526960e21b815260048101829052602401610564565b611ab48383611bc5565b505050565b306001600160a01b037f00000000000000000000000000000000000000000000000000000000000000001614610b5d5760405163703e46dd60e11b815260040160405180910390fd5b7f9016d09d72d40fdae2fd8ceac6b6234c7706214fd39c1cd1e609a0528c19930080546001600160a01b031981166001600160a01b03848116918217845560405192169182907f8be0079c531659141344cd1fd0a4f28419497f9722a3daafe3b4186f6b6457e090600090a3505050565b6000807ff0c57e16840df040f15088dc2f81fe391c3923bec73e23a9662efc9c229c6a0061066e565b611ba4611c1b565b610b0c81611c40565b610b5d611c1b565b611bbd611c1b565b610b5d611c48565b611bce82611c50565b6040516001600160a01b038316907fbc7cd75a20ee27fd9adebab32041f755214dbc6bffa90cc0225b39da2e5c2d3b90600090a2805115611c1357611ab48282611cb5565b610b2a611d2b565b611c23611d4a565b610b5d57604051631afcd79f60e31b815260040160405180910390fd5b611320611c1b565b611936611c1b565b806001600160a01b03163b600003611c8657604051634c9c8ce360e01b81526001600160a01b0382166004820152602401610564565b6000805160206123af83398151915280546001600160a01b0319166001600160a01b0392909216919091179055565b6060600080846001600160a01b031684604051611cd29190612392565b600060405180830381855af49150503d8060008114611d0d576040519150601f19603f3d011682016040523d82523d6000602084013e611d12565b606091505b5091509150611d22858383611d64565b95945050505050565b3415610b5d5760405163b398979f60e01b815260040160405180910390fd5b6000611d54611b73565b54600160401b900460ff16919050565b606082611d7957611d7482611dc3565b611dbc565b8151158015611d9057506001600160a01b0384163b155b15611db957604051639996b31560e01b81526001600160a01b0385166004820152602401610564565b50805b9392505050565b805115611dd257805160208201fd5b60405163d6bda27560e01b815260040160405180910390fd5b80356001600160a01b0381168114611e0257600080fd5b919050565b600060208284031215611e1957600080fd5b61066b82611deb565b60008060208385031215611e3557600080fd5b823567ffffffffffffffff80821115611e4d57600080fd5b818501915085601f830112611e6157600080fd5b813581811115611e7057600080fd5b866020828501011115611e8257600080fd5b60209290920196919550909350505050565b60008060408385031215611ea757600080fd5b611eb083611deb565b9150602083013561ffff81168114611ec757600080fd5b809150509250929050565b600060208284031215611ee457600080fd5b5035919050565b634e487b7160e01b600052604160045260246000fd5b60008060408385031215611f1457600080fd5b611f1d83611deb565b9150602083013567ffffffffffffffff80821115611f3a57600080fd5b818501915085601f830112611f4e57600080fd5b813581811115611f6057611f60611eeb565b604051601f8201601f19908116603f01168101908382118183101715611f8857611f88611eeb565b81604052828152886020848701011115611fa157600080fd5b8260208601602083013760006020848301015280955050505050509250929050565b60008060408385031215611fd657600080fd5b611fdf83611deb565b9150611fed60208401611deb565b90509250929050565b600080600080600080600060e0888a03121561201157600080fd5b61201a88611deb565b965061202860208901611deb565b955061203660408901611deb565b9450606088013593506080880135925060a0880135915061205960c08901611deb565b905092959891949750929550565b60005b8381101561208257818101518382015260200161206a565b50506000910152565b60208152600082518060208401526120aa816040850160208701612067565b601f01601f19169190910160400192915050565b8015158114610b0c57600080fd5b600080604083850312156120df57600080fd5b6120e883611deb565b91506020830135611ec7816120be565b805169ffffffffffffffffffff81168114611e0257600080fd5b600080600080600060a0868803121561212a57600080fd5b612133866120f8565b9450602086015193506040860151925060608601519150612156608087016120f8565b90509295509295909350565b60006020828403121561217457600080fd5b815160ff81168114611dbc57600080fd5b602080825260059082015264195b99195960da1b604082015260600190565b634e487b7160e01b600052601160045260246000fd5b8082018082111561066e5761066e6121a4565b6001600160a01b039384168152919092166020820152604081019190915260600190565b60006020828403121561220357600080fd5b8151611dbc816120be565b808202811582820484141761066e5761066e6121a4565b8181038181111561066e5761066e6121a4565b600181815b80851115612273578160001904821115612259576122596121a4565b8085161561226657918102915b93841c939080029061223d565b509250929050565b60008261228a5750600161066e565b816122975750600061066e565b81600181146122ad57600281146122b7576122d3565b600191505061066e565b60ff8411156122c8576122c86121a4565b50506001821b61066e565b5060208310610133831016604e8410600b84101617156122f6575081810a61066e565b6123008383612238565b8060001904821115612314576123146121a4565b029392505050565b600061066b838361227b565b60008261234557634e487b7160e01b600052601260045260246000fd5b500490565b60208152816020820152818360408301376000818301604090810191909152601f909201601f19160101919050565b60006020828403121561238b57600080fd5b5051919050565b600082516123a4818460208701612067565b919091019291505056fe360894a13ba1a3210667c828492db98dca3e2076cc3735a920a3ca505d382bbc9b779b17422d0df92223018b32b4d1fa46e071723d6817e2486d003becc55f00a26469706673582212206d20627b519e713e25af6663b7e5a1e4906a7d96b2c2cd0565951ba279ce16b464736f6c63430008180033",
  "linkReferences": {},
  "deployedLinkReferences": {}
}