{
  "_format": "hh-sol-artifact-1",
  "contractName": "MockV3Aggregator",
  "sourceName": "contracts/test/MockV3Aggregator.sol",
  "abi": [
    {
      "inputs": [
        {
          "internalType": "uint8",
          "name": "_decimals",
          "type": "uint8"
        },
        {
          "internalType": "int256",
          "name": "initialAnswer",
          "type": "int256"
        }
      ],
      "stateMutability": "nonpayable",
      "type": "constructor"
    },
    {
      "inputs": [],
      "name": "decimals",
      "outputs": [
        {
          "internalType": "uint8",
          "name": "",
          "type": "uint8"
        }
      ],
      "stateMutability": "view",
      "type": "function"
    },
    {
      "inputs": [],
      "name": "description",
      "outputs": [
        {
          "internalType": "string",
          "name": "",
          "type": "string"
        }
      ],
      "stateMutability": "view",
      "type": "function"
    },
    {
      "inputs": [
        {
          "internalType": "uint80",
          "name": "",
          "type": "uint80"
        }
      ],
      "name": "getRoundData",
      "outputs": [
        {
          "internalType": "uint80",
          "name": "roundId",
          "type": "uint80"
        },
        {
          "internalType": "int256",
          "name": "answer",
          "type": "int256"
        },
        {
          "internalType": "uint256",
          "name": "startedAt",
          "type": "uint256"
        },
        {
          "internalType": "uint256",
          "name": "updatedAt",
          "type": "uint256"
        },
        {
          "internalType": "uint80",
          "name": "answeredInRound",
          "type": "uint80"
        }
      ],
      "stateMutability": "view",
      "type": "function"
    },
    {
      "inputs": [],
      "name": "latestRoundData",
      "outputs": [
        {
          "internalType": "uint80",
          "name": "roundId",
          "type": "uint80"
        },
        {
          "internalType": "int256",
          "name": "answer",
          "type": "int256"
        },
        {
          "internalType": "uint256",
          "name": "startedAt",
          "type": "uint256"
        },
        {
          "internalType": "uint256",
          "name": "updatedAt",
          "type": "uint256"
        },
        {
          "internalType": "uint80",
          "name": "answeredInRound",
          "type": "uint80"
        }
      ],
      "stateMutability": "view",
      "type": "function"
    },
    {
      "inputs": [
        {
          "internalType": "int256",
          "name": "newAnswer",
          "type": "int256"
        }
      ],
      "name": "setAnswer",
      "outputs": [],
      "stateMutability": "nonpayable",
      "type": "function"
    },
    {
      "inputs": [],
      "name": "version",
      "outputs": [
        {
          "internalType": "uint256",
          "name": "",
          "type": "uint256"
        }
      ],
      "stateMutability": "view",
      "type": "function"
    }
  ],
  "bytecode": "0x60a060405260016000819055600280546001600160501b031916909117905534801561002a57600080fd5b506040516103783803806103788339810160408190526100499161005d565b60ff90911660805260015542600355610091565b6000806040838503121561007057600080fd5b825160ff8116811461008157600080fd5b6020939093015192949293505050565b6080516102cd6100ab6000396000606c01526102cd6000f3fe608060405234801561001057600080fd5b50600436106100625760003560e01c8063313ce5671461006757806354fd4d50146100a55780637284e416146100bc57806399213cd8146100ec5780639a6fc8f514610101578063feaf968c14610162575b600080fd5b61008e7f000000000000000000000000000000000000000000000000000000000000000081565b60405160ff90911681526020015b60405180910390f35b6100ae60005481565b60405190815260200161009c565b6100df604051806040016040528060048152602001636d6f636b60e01b81525081565b60405161009c91906101cb565b6100ff6100fa36600461021a565b61017e565b005b61012e61010f366004610233565b506002546001546003546001600160501b039092169290919081908490565b604080516001600160501b03968716815260208101959095528401929092526060830152909116608082015260a00161009c565b6002546001546003546001600160501b0390921691808361012e565b6001819055600280546001600160501b031690600061019c83610263565b91906101000a8154816001600160501b0302191690836001600160501b03160217905550504260038190555050565b60006020808352835180602085015260005b818110156101f9578581018301518582016040015282016101dd565b506000604082860101526040601f19601f8301168501019250505092915050565b60006020828403121561022c57600080fd5b5035919050565b60006020828403121561024557600080fd5b81356001600160501b038116811461025c57600080fd5b9392505050565b60006001600160501b0380831681810361028d57634e487b7160e01b600052601160045260246000fd5b600101939250505056fea26469706673582212201cf65d255a3dadec15cec3b682671b708da072a5ee0b3113e153794c2b4c84c364736f6c63430008180033",
  "linkReferences": {},
  "deployedLinkReferences": {}
}