{
  "_format": "hh-sol-artifact-1",
  "contractName": "NFTUpgradeable",
  "sourceName": "contracts/NFTUpgradeable.sol",
  "abi": [
    {
      "inputs": [
        {
          "internalType": "address",
          "name": "target",
          "type": "address"
        }
      ],
      "name": "AddressEmptyCode",
      "type": "error"
    },
    {
      "inputs": [
        {
          "internalType": "address",
          "name": "implementation",
          "type": "address"
        }
      ],
      "name": "ERC1967InvalidImplementation",
      "type": "error"
    },
    {
      "inputs": [],
      "name": "ERC1967NonPayable",
      "type": "error"
    },
    {
      "inputs": [
        {
          "internalType": "address",
          "name": "sender",
          "type": "address"
        },
        {
          "internalType": "uint256",
          "name": "tokenId",
          "type": "uint256"
        },
        {
          "internalType": "address",
          "name": "owner",
          "type": "address"
        }
      ],
      "name": "ERC721IncorrectOwner",
      "type": "error"
    },
    {
      "inputs": [
        {
          "internalType": "address",
          "name": "operator",
          "type": "address"
        },
        {
          "internalType": "uint256",
          "name": "tokenId",
          "type": "uint256"
        }
      ],
      "name": "ERC721InsufficientApproval",
      "type": "error"
    },
    {
      "inputs": [
        {
          "internalType": "address",
          "name": "approver",
          "type": "address"
        }
      ],
      "name": "ERC721InvalidApprover",
      "type": "error"
    },
    {
      "inputs": [
        {
          "internalType": "address",
          "name": "operator",
          "type": "address"
        }
      ],
      "name": "ERC721InvalidOperator",
      "type": "error"
    },
    {
      "inputs": [
        {
          "internalType": "address",
          "name": "owner",
          "type": "address"
        }
      ],
      "name": "ERC721InvalidOwner",
      "type": "error"
    },
    {
      "inputs": [
        {
          "internalType": "address",
          "name": "receiver",
          "type": "address"
        }
      ],
      "name": "ERC721InvalidReceiver",
      "type": "error"
    },
    {
      "inputs": [
        {
          "internalType": "address",
          "name": "sender",
          "type": "address"
        }
      ],
      "name": "ERC721InvalidSender",
      "type": "error"
    },
    {
      "inputs": [
        {
          "internalType": "uint256",
          "name": "tokenId",
          "type": "uint256"
        }
      ],
      "name": "ERC721NonexistentToken",
      "type": "error"
    },
    {
      "inputs": [],
      "name": "FailedCall",
      "type": "error"
    },
    {
      "inputs": [],
      "name": "InvalidInitialization",
      "type": "error"
    },
    {
      "inputs": [],
      "name": "NotInitializing",
      "type": "error"
    },
    {
      "inputs": [
        {
          "internalType": "address",
          "name": "owner",
          "type": "address"
        }
      ],
      "name": "OwnableInvalidOwner",
      "type": "error"
    },
    {
      "inputs": [
        {
          "internalType": "address",
          "name": "account",
          "type": "address"
        }
      ],
      "name": "OwnableUnauthorizedAccount",
      "type": "error"
    },
    {
      "inputs": [],
      "name": "UUPSUnauthorizedCallContext",
      "type": "error"
    },
    {
      "inputs": [
        {
          "internalType": "bytes32",
          "name": "slot",
          "type": "bytes32"
        }
      ],
      "name": "UUPSUnsupportedProxiableUUID",
      "type": "error"
    },
    {
      "anonymous": false,
      "inputs": [
        {
          "indexed": true,
          "internalType": "address",
          "name": "owner",
          "type": "address"
        },
        {
          "indexed": true,
          "internalType": "address",
          "name": "approved",
          "type": "address"
        },
        {
          "indexed": true,
          "internalType": "uint256",
          "name": "tokenId",
          "type": "uint256"
        }
      ],
      "name": "Approval",
      "type": "event"
    },
    {
      "anonymous": false,
      "inputs": [
        {
          "indexed": true,
          "internalType": "address",
          "name": "owner",
          "type": "address"
        },
        {
          "indexed": true,
          "internalType": "address",
          "name": "operator",
          "type": "address"
        },
        {
          "indexed": false,
          "internalType": "bool",
          "name": "approved",
          "type": "bool"
        }
      ],
      "name": "ApprovalForAll",
      "type": "event"
    },
    {
      "anonymous": false,
      "inputs": [
        {
          "indexed": false,
          "internalType": "uint64",
          "name": "version",
          "type": "uint64"
        }
      ],
      "name": "Initialized",
      "type": "event"
    },
    {
      "anonymous": false,
      "inputs": [
        {
          "indexed": true,
          "internalType": "address",
          "name": "previousOwner",
          "type": "address"
        },
        {
          "indexed": true,
          "internalType": "address",
          "name": "newOwner",
          "type": "address"
        }
      ],
      "name": "OwnershipTransferred",
      "type": "event"
    },
    {
      "anonymous": false,
      "inputs": [
        {
          "indexed": true,
          "internalType": "address",
          "name": "from",
          "type": "address"
        },
        {
          "indexed": true,
          "internalType": "address",
          "name": "to",
          "type": "address"
        },
        {
          "indexed": true,
          "internalType": "uint256",
          "name": "tokenId",
          "type": "uint256"
        }
      ],
      "name": "Transfer",
      "type": "event"
    },
    {
      "anonymous": false,
      "inputs": [
        {
          "indexed": true,
          "internalType": "address",
          "name": "implementation",
          "type": "address"
        }
      ],
      "name": "Upgraded",
      "type": "event"
    },
    {
      "inputs": [],
      "name": "UPGRADE_INTERFACE_VERSION",
      "outputs": [
        {
          "internalType": "string",
          "name": "",
          "type": "string"
        }
      ],
      "stateMutability": "view",
      "type": "function"
    },
    {
      "inputs": [
        {
          "internalType": "address",
          "name": "to",
          "type": "address"
        },
        {
          "internalType": "uint256",
          "name": "tokenId",
          "type": "uint256"
        }
      ],
      "name": "approve",
      "outputs": [],
      "stateMutability": "nonpayable",
      "type": "function"
    },
    {
      "inputs": [
        {
          "internalType": "address",
          "name": "owner",
          "type": "address"
        }
      ],
      "name": "balanceOf",
      "outputs": [
        {
          "internalType": "uint256",
          "name": "",
          "type": "uint256"
        }
      ],
      "stateMutability": "view",
      "type": "function"
    },
    {
      "inputs": [
        {
          "internalType": "uint256",
          "name": "tokenId",
          "type": "uint256"
        }
      ],
      "name": "getApproved",
      "outputs": [
        {
          "internalType": "address",
          "name": "",
          "type": "address"
        }
      ],
      "stateMutability": "view",
      "type": "function"
    },
    {
      "inputs": [
        {
          "internalType": "string",
          "name": "name_",
          "type": "string"
        },
        {
          "internalType": "string",
          "name": "symbol_",
          "type": "string"
        },
        {
          "internalType": "string",
          "name": "baseURI_",
          "type": "string"
        }
      ],
      "name": "initialize",
      "outputs": [],
      "stateMutability": "nonpayable",
      "type": "function"
    },
    {
      "inputs": [
        {
          "internalType": "address",
          "name": "owner",
          "type": "address"
        },
        {
          "internalType": "address",
          "name": "operator",
          "type": "address"
        }
      ],
      "name": "isApprovedForAll",
      "outputs": [
        {
          "internalType": "bool",
          "name": "",
          "type": "bool"
        }
      ],
      "stateMutability": "view",
      "type": "function"
    },
    {
      "inputs": [],
      "name": "name",
      "outputs": [
        {
          "internalType": "string",
          "name": "",
          "type": "string"
        }
      ],
      "stateMutability": "view",
      "type": "function"
    },
    {
      "inputs": [],
      "name": "owner",
      "outputs": [
        {
          "internalType": "address",
          "name": "",
          "type": "address"
        }
      ],
      "stateMutability": "view",
      "type": "function"
    },
    {
      "inputs": [
        {
          "internalType": "uint256",
          "name": "tokenId",
          "type": "uint256"
        }
      ],
      "name": "ownerOf",
      "outputs": [
        {
          "internalType": "address",
          "name": "",
          "type": "address"
        }
      ],
      "stateMutability": "view",
      "type": "function"
    },
    {
      "inputs": [],
      "name": "proxiableUUID",
      "outputs": [
        {
          "internalType": "bytes32",
          "name": "",
          "type": "bytes32"
        }
      ],
      "stateMutability": "view",
      "type": "function"
    },
    {
      "inputs": [],
      "name": "renounceOwnership",
      "outputs": [],
      "stateMutability": "nonpayable",
      "type": "function"
    },
    {
      "inputs": [
        {
          "internalType": "address",
          "name": "to",
          "type": "address"
        }
      ],
      "name": "safeMint",
      "outputs": [
        {
          "internalType": "uint256",
          "name": "tokenId",
          "type": "uint256"
        }
      ],
      "stateMutability": "nonpayable",
      "type": "function"
    },
    {
      "inputs": [
        {
          "internalType": "address",
          "name": "to",
          "type": "address"
        },
        {
          "internalType": "string",
          "name": "tokenURI_",
          "type": "string"
        }
      ],
      "name": "safeMintWithURI",
      "outputs": [
        {
          "internalType": "uint256",
          "name": "tokenId",
          "type": "uint256"
        }
      ],
      "stateMutability": "nonpayable",
      "type": "function"
    },
    {
      "inputs": [
        {
          "internalType": "address",
          "name": "from",
          "type": "address"
        },
        {
          "internalType": "address",
          "name": "to",
          "type": "address"
        },
        {
          "internalType": "uint256",
          "name": "tokenId",
          "type": "uint256"
        }
      ],
      "name": "safeTransferFrom",
      "outputs": [],
      "stateMutability": "nonpayable",
      "type": "function"
    },
    {
      "inputs": [
        {
          "internalType": "address",
          "name": "from",
          "type": "address"
        },
        {
          "internalType": "address",
          "name": "to",
          "type": "address"
        },
        {
          "internalType": "uint256",
          "name": "tokenId",
          "type": "uint256"
        },
        {
          "internalType": "bytes",
          "name": "data",
          "type": "bytes"
        }
      ],
      "name": "safeTransferFrom",
      "outputs": [],
      "stateMutability": "nonpayable",
      "type": "function"
    },
    {
      "inputs": [
        {
          "internalType": "address",
          "name": "operator",
          "type": "address"
        },
        {
          "internalType": "bool",
          "name": "approved",
          "type": "bool"
        }
      ],
      "name": "setApprovalForAll",
      "outputs": [],
      "stateMutability": "nonpayable",
      "type": "function"
    },
    {
      "inputs": [
        {
          "internalType": "string",
          "name": "newBase",
          "type": "string"
        }
      ],
      "name": "setBaseURI",
      "outputs": [],
      "stateMutability": "nonpayable",
      "type": "function"
    },
    {
      "inputs": [
        {
          "internalType": "bytes4",
          "name": "interfaceId",
          "type": "bytes4"
        }
      ],
      "name": "supportsInterface",
      "outputs": [
        {
          "internalType": "bool",
          "name": "",
          "type": "bool"
        }
      ],
      "stateMutability": "view",
      "type": "function"
    },
    {
      "inputs": [],
      "name": "symbol",
      "outputs": [
        {
          "internalType": "string",
          "name": "",
          "type": "string"
        }
      ],
      "stateMutability": "view",
      "type": "function"
    },
    {
      "inputs": [
        {
          "internalType": "uint256",
          "name": "tokenId",
          "type": "uint256"
        }
      ],
      "name": "tokenURI",
      "outputs": [
        {
          "internalType": "string",
          "name": "",
          "type": "string"
        }
      ],
      "stateMutability": "view",
      "type": "function"
    },
    {
      "inputs": [
        {
          "internalType": "address",
          "name": "from",
          "type": "address"
        },
        {
          "internalType": "address",
          "name": "to",
          "type": "address"
        },
        {
          "internalType": "uint256",
          "name": "tokenId",
          "type": "uint256"
        }
      ],
      "name": "transferFrom",
      "outputs": [],
      "stateMutability": "nonpayable",
      "type": "function"
    },
    {
      "inputs": [
        {
          "internalType": "address",
          "name": "newOwner",
          "type": "address"
        }
      ],
      "name": "transferOwnership",
      "outputs": [],
      "stateMutability": "nonpayable",
      "type": "function"
    },
    {
      "inputs": [
        {
          "internalType": "address",
          "name": "newImplementation",
          "type": "address"
        },
        {
          "internalType": "bytes",
          "name": "data",
          "type": "bytes"
        }
      ],
      "name": "upgradeToAndCall",
      "outputs": [],
      "stateMutability": "payable",
      "type": "function"
    }
  ],
  "bytecode": "0x60a06040523060805234801561001457600080fd5b50608051611e5161003e60003960008181610c5801528181610c810152610dc20152611e516000f3fe6080604052600436106101405760003560e01c806370a08231116100b6578063ad3cb1cc1161006f578063ad3cb1cc14610393578063b88d4fde146103c4578063c87b56dd146103e4578063cac6b1b714610404578063e985e9c514610424578063f2fde38b1461044457600080fd5b806370a08231146102cc578063715018a6146102ec5780638da5cb5b1461030157806395d89b411461033e578063a22cb46514610353578063a6487c531461037357600080fd5b806340d097c31161010857806340d097c31461021657806342842e0e146102445780634f1ef2861461026457806352d1902d1461027757806355f804b31461028c5780636352211e146102ac57600080fd5b806301ffc9a71461014557806306fdde031461017a578063081812fc1461019c578063095ea7b3146101d457806323b872dd146101f6575b600080fd5b34801561015157600080fd5b506101656101603660046117fe565b610464565b60405190151581526020015b60405180910390f35b34801561018657600080fd5b5061018f610475565b604051610171919061186b565b3480156101a857600080fd5b506101bc6101b736600461187e565b610519565b6040516001600160a01b039091168152602001610171565b3480156101e057600080fd5b506101f46101ef3660046118ae565b61052e565b005b34801561020257600080fd5b506101f46102113660046118d8565b61053d565b34801561022257600080fd5b50610236610231366004611914565b6105cd565b604051908152602001610171565b34801561025057600080fd5b506101f461025f3660046118d8565b6105fc565b6101f46102723660046119d2565b61061c565b34801561028357600080fd5b50610236610637565b34801561029857600080fd5b506101f46102a7366004611a20565b610654565b3480156102b857600080fd5b506101bc6102c736600461187e565b610668565b3480156102d857600080fd5b506102366102e7366004611914565b610673565b3480156102f857600080fd5b506101f46106cf565b34801561030d57600080fd5b507f9016d09d72d40fdae2fd8ceac6b6234c7706214fd39c1cd1e609a0528c199300546001600160a01b03166101bc565b34801561034a57600080fd5b5061018f6106e3565b34801561035f57600080fd5b506101f461036e366004611a55565b610722565b34801561037f57600080fd5b506101f461038e366004611a91565b61072d565b34801561039f57600080fd5b5061018f604051806040016040528060058152602001640352e302e360dc1b81525081565b3480156103d057600080fd5b506101f46103df366004611b19565b61084e565b3480156103f057600080fd5b5061018f6103ff36600461187e565b610866565b34801561041057600080fd5b5061023661041f3660046119d2565b61092b565b34801561043057600080fd5b5061016561043f366004611b81565b610974565b34801561045057600080fd5b506101f461045f366004611914565b6109c1565b600061046f826109ff565b92915050565b600080516020611ddc833981519152805460609190819061049590611bb4565b80601f01602080910402602001604051908101604052809291908181526020018280546104c190611bb4565b801561050e5780601f106104e35761010080835404028352916020019161050e565b820191906000526020600020905b8154815290600101906020018083116104f157829003601f168201915b505050505091505090565b600061052482610a4f565b5061046f82610a87565b610539828233610ac1565b5050565b6001600160a01b03821661056c57604051633250574960e11b8152600060048201526024015b60405180910390fd5b6000610579838333610ace565b9050836001600160a01b0316816001600160a01b0316146105c7576040516364283d7b60e01b81526001600160a01b0380861660048301526024820184905282166044820152606401610563565b50505050565b60006105d7610bd8565b600180549060006105e783611bee565b9190505590506105f78282610c33565b919050565b6106178383836040518060200160405280600081525061084e565b505050565b610624610c4d565b61062d82610cf2565b6105398282610cfa565b6000610641610db7565b50600080516020611dfc83398151915290565b61065c610bd8565b60006105398282611c5d565b600061046f82610a4f565b6000600080516020611ddc8339815191526001600160a01b0383166106ae576040516322718ad960e21b815260006004820152602401610563565b6001600160a01b039092166000908152600390920160205250604090205490565b6106d7610bd8565b6106e16000610e00565b565b7f80bb2b638cc20bc4d0a60d66940f3ab4a00c1d7b313497ca82fb0b4ab00793018054606091600080516020611ddc8339815191529161049590611bb4565b610539338383610e71565b6000610737610f22565b805490915060ff600160401b820416159067ffffffffffffffff1660008115801561075f5750825b905060008267ffffffffffffffff16600114801561077c5750303b155b90508115801561078a575080155b156107a85760405163f92ee8a960e01b815260040160405180910390fd5b845467ffffffffffffffff1916600117855583156107d257845460ff60401b1916600160401b1785555b6107dc8888610f4b565b6107e533610f5d565b6107ed610f6e565b60006107f98782611c5d565b5060018055831561084457845460ff60401b19168555604051600181527fc7f505b2f371ae2175ee4913f4499e1f2633a7b5936321eed1cdaeb6115181d29060200160405180910390a15b5050505050505050565b61085984848461053d565b6105c73385858585610f76565b606061087182610a4f565b506000828152600260205260408120805461088b90611bb4565b80601f01602080910402602001604051908101604052809291908181526020018280546108b790611bb4565b80156109045780601f106108d957610100808354040283529160200191610904565b820191906000526020600020905b8154815290600101906020018083116108e757829003601f168201915b5050505050905060008151111561091b5792915050565b610924836110a1565b9392505050565b6000610935610bd8565b6001805490600061094583611bee565b9190505590506109558382610c33565b600081815260026020526040902061096d8382611c5d565b5092915050565b6001600160a01b0391821660009081527f80bb2b638cc20bc4d0a60d66940f3ab4a00c1d7b313497ca82fb0b4ab00793056020908152604080832093909416825291909152205460ff1690565b6109c9610bd8565b6001600160a01b0381166109f357604051631e4fbdf760e01b815260006004820152602401610563565b6109fc81610e00565b50565b60006001600160e01b031982166380ac58cd60e01b1480610a3057506001600160e01b03198216635b5e139f60e01b145b8061046f57506301ffc9a760e01b6001600160e01b031983161461046f565b600080610a5b83611108565b90506001600160a01b03811661046f57604051637e27328960e01b815260048101849052602401610563565b60009081527f80bb2b638cc20bc4d0a60d66940f3ab4a00c1d7b313497ca82fb0b4ab007930460205260409020546001600160a01b031690565b6106178383836001611142565b6000600080516020611ddc83398151915281610ae985611108565b90506001600160a01b03841615610b0557610b05818587611258565b6001600160a01b03811615610b4557610b22600086600080611142565b6001600160a01b0381166000908152600383016020526040902080546000190190555b6001600160a01b03861615610b76576001600160a01b03861660009081526003830160205260409020805460010190555b600085815260028301602052604080822080546001600160a01b0319166001600160a01b038a811691821790925591518893918516917fddf252ad1be2c89b69c2b068fc378daa952ba7f163c4a11628f55a4df523b3ef91a495945050505050565b33610c0a7f9016d09d72d40fdae2fd8ceac6b6234c7706214fd39c1cd1e609a0528c199300546001600160a01b031690565b6001600160a01b0316146106e15760405163118cdaa760e01b8152336004820152602401610563565b6105398282604051806020016040528060008152506112bc565b306001600160a01b037f0000000000000000000000000000000000000000000000000000000000000000161480610cd457507f00000000000000000000000000000000000000000000000000000000000000006001600160a01b0316610cc8600080516020611dfc833981519152546001600160a01b031690565b6001600160a01b031614155b156106e15760405163703e46dd60e11b815260040160405180910390fd5b6109fc610bd8565b816001600160a01b03166352d1902d6040518163ffffffff1660e01b8152600401602060405180830381865afa925050508015610d54575060408051601f3d908101601f19168201909252610d5191810190611d1d565b60015b610d7c57604051634c9c8ce360e01b81526001600160a01b0383166004820152602401610563565b600080516020611dfc8339815191528114610dad57604051632a87526960e21b815260048101829052602401610563565b61061783836112d4565b306001600160a01b037f000000000000000000000000000000000000000000000000000000000000000016146106e15760405163703e46dd60e11b815260040160405180910390fd5b7f9016d09d72d40fdae2fd8ceac6b6234c7706214fd39c1cd1e609a0528c19930080546001600160a01b031981166001600160a01b03848116918217845560405192169182907f8be0079c531659141344cd1fd0a4f28419497f9722a3daafe3b4186f6b6457e090600090a3505050565b600080516020611ddc8339815191526001600160a01b038316610eb257604051630b61174360e31b81526001600160a01b0384166004820152602401610563565b6001600160a01b038481166000818152600584016020908152604080832094881680845294825291829020805460ff191687151590811790915591519182527f17307eab39ab6107e8899845ad3d59bd9653f200f220920489ca2b5937696c31910160405180910390a350505050565b6000807ff0c57e16840df040f15088dc2f81fe391c3923bec73e23a9662efc9c229c6a0061046f565b610f5361132a565b610539828261134f565b610f6561132a565b6109fc81611380565b6106e161132a565b6001600160a01b0383163b1561109a57604051630a85bd0160e11b81526001600160a01b0384169063150b7a0290610fb8908890889087908790600401611d36565b6020604051808303816000875af1925050508015610ff3575060408051601f3d908101601f19168201909252610ff091810190611d73565b60015b61105c573d808015611021576040519150601f19603f3d011682016040523d82523d6000602084013e611026565b606091505b50805160000361105457604051633250574960e11b81526001600160a01b0385166004820152602401610563565b805160208201fd5b6001600160e01b03198116630a85bd0160e11b1461109857604051633250574960e11b81526001600160a01b0385166004820152602401610563565b505b5050505050565b60606110ac82610a4f565b5060006110b7611388565b905060008151116110d75760405180602001604052806000815250610924565b806110e18461141a565b6040516020016110f2929190611d90565b6040516020818303038152906040529392505050565b60009081527f80bb2b638cc20bc4d0a60d66940f3ab4a00c1d7b313497ca82fb0b4ab007930260205260409020546001600160a01b031690565b600080516020611ddc833981519152818061116557506001600160a01b03831615155b1561122757600061117585610a4f565b90506001600160a01b038416158015906111a15750836001600160a01b0316816001600160a01b031614155b80156111b457506111b28185610974565b155b156111dd5760405163a9fbf51f60e01b81526001600160a01b0385166004820152602401610563565b82156112255784866001600160a01b0316826001600160a01b03167f8c5be1e5ebec7d5bd14f71427d1e84f3dd0314c0f7b2291e5b200ac8c7c3b92560405160405180910390a45b505b600093845260040160205250506040902080546001600160a01b0319166001600160a01b0392909216919091179055565b6112638383836114ad565b610617576001600160a01b03831661129157604051637e27328960e01b815260048101829052602401610563565b60405163177e802f60e01b81526001600160a01b038316600482015260248101829052604401610563565b6112c68383611513565b610617336000858585610f76565b6112dd82611578565b6040516001600160a01b038316907fbc7cd75a20ee27fd9adebab32041f755214dbc6bffa90cc0225b39da2e5c2d3b90600090a28051156113225761061782826115dd565b610539611653565b611332611672565b6106e157604051631afcd79f60e31b815260040160405180910390fd5b61135761132a565b600080516020611ddc833981519152806113718482611c5d565b50600181016105c78382611c5d565b6109c961132a565b60606000805461139790611bb4565b80601f01602080910402602001604051908101604052809291908181526020018280546113c390611bb4565b80156114105780601f106113e557610100808354040283529160200191611410565b820191906000526020600020905b8154815290600101906020018083116113f357829003601f168201915b5050505050905090565b606060006114278361168c565b600101905060008167ffffffffffffffff8111156114475761144761192f565b6040519080825280601f01601f191660200182016040528015611471576020820181803683370190505b5090508181016020015b600019016f181899199a1a9b1b9c1cb0b131b232b360811b600a86061a8153600a850494508461147b57509392505050565b60006001600160a01b0383161580159061150b5750826001600160a01b0316846001600160a01b031614806114e757506114e78484610974565b8061150b5750826001600160a01b031661150083610a87565b6001600160a01b0316145b949350505050565b6001600160a01b03821661153d57604051633250574960e11b815260006004820152602401610563565b600061154b83836000610ace565b90506001600160a01b03811615610617576040516339e3563760e11b815260006004820152602401610563565b806001600160a01b03163b6000036115ae57604051634c9c8ce360e01b81526001600160a01b0382166004820152602401610563565b600080516020611dfc83398151915280546001600160a01b0319166001600160a01b0392909216919091179055565b6060600080846001600160a01b0316846040516115fa9190611dbf565b600060405180830381855af49150503d8060008114611635576040519150601f19603f3d011682016040523d82523d6000602084013e61163a565b606091505b509150915061164a858383611764565b95945050505050565b34156106e15760405163b398979f60e01b815260040160405180910390fd5b600061167c610f22565b54600160401b900460ff16919050565b60008072184f03e93ff9f4daa797ed6e38ed64bf6a1f0160401b83106116cb5772184f03e93ff9f4daa797ed6e38ed64bf6a1f0160401b830492506040015b6d04ee2d6d415b85acef810000000083106116f7576d04ee2d6d415b85acef8100000000830492506020015b662386f26fc10000831061171557662386f26fc10000830492506010015b6305f5e100831061172d576305f5e100830492506008015b612710831061174157612710830492506004015b60648310611753576064830492506002015b600a831061046f5760010192915050565b60608261177957611774826117c0565b610924565b815115801561179057506001600160a01b0384163b155b156117b957604051639996b31560e01b81526001600160a01b0385166004820152602401610563565b5080610924565b8051156117cf57805160208201fd5b60405163d6bda27560e01b815260040160405180910390fd5b6001600160e01b0319811681146109fc57600080fd5b60006020828403121561181057600080fd5b8135610924816117e8565b60005b8381101561183657818101518382015260200161181e565b50506000910152565b6000815180845261185781602086016020860161181b565b601f01601f19169290920160200192915050565b602081526000610924602083018461183f565b60006020828403121561189057600080fd5b5035919050565b80356001600160a01b03811681146105f757600080fd5b600080604083850312156118c157600080fd5b6118ca83611897565b946020939093013593505050565b6000806000606084860312156118ed57600080fd5b6118f684611897565b925061190460208501611897565b9150604084013590509250925092565b60006020828403121561192657600080fd5b61092482611897565b634e487b7160e01b600052604160045260246000fd5b600082601f83011261195657600080fd5b813567ffffffffffffffff808211156119715761197161192f565b604051601f8301601f19908116603f011681019082821181831017156119995761199961192f565b816040528381528660208588010111156119b257600080fd5b836020870160208301376000602085830101528094505050505092915050565b600080604083850312156119e557600080fd5b6119ee83611897565b9150602083013567ffffffffffffffff811115611a0a57600080fd5b611a1685828601611945565b9150509250929050565b600060208284031215611a3257600080fd5b813567ffffffffffffffff811115611a4957600080fd5b61150b84828501611945565b60008060408385031215611a6857600080fd5b611a7183611897565b915060208301358015158114611a8657600080fd5b809150509250929050565b600080600060608486031215611aa657600080fd5b833567ffffffffffffffff80821115611abe57600080fd5b611aca87838801611945565b94506020860135915080821115611ae057600080fd5b611aec87838801611945565b93506040860135915080821115611b0257600080fd5b50611b0f86828701611945565b9150509250925092565b60008060008060808587031215611b2f57600080fd5b611b3885611897565b9350611b4660208601611897565b925060408501359150606085013567ffffffffffffffff811115611b6957600080fd5b611b7587828801611945565b91505092959194509250565b60008060408385031215611b9457600080fd5b611b9d83611897565b9150611bab60208401611897565b90509250929050565b600181811c90821680611bc857607f821691505b602082108103611be857634e487b7160e01b600052602260045260246000fd5b50919050565b600060018201611c0e57634e487b7160e01b600052601160045260246000fd5b5060010190565b601f821115610617576000816000526020600020601f850160051c81016020861015611c3e5750805b601f850160051c820191505b8181101561109857828155600101611c4a565b815167ffffffffffffffff811115611c7757611c7761192f565b611c8b81611c858454611bb4565b84611c15565b602080601f831160018114611cc05760008415611ca85750858301515b600019600386901b1c1916600185901b178555611098565b600085815260208120601f198616915b82811015611cef57888601518255948401946001909101908401611cd0565b5085821015611d0d5787850151600019600388901b60f8161c191681555b5050505050600190811b01905550565b600060208284031215611d2f57600080fd5b5051919050565b6001600160a01b0385811682528416602082015260408101839052608060608201819052600090611d699083018461183f565b9695505050505050565b600060208284031215611d8557600080fd5b8151610924816117e8565b60008351611da281846020880161181b565b835190830190611db681836020880161181b565b01949350505050565b60008251611dd181846020870161181b565b919091019291505056fe80bb2b638cc20bc4d0a60d66940f3ab4a00c1d7b313497ca82fb0b4ab0079300360894a13ba1a3210667c828492db98dca3e2076cc3735a920a3ca505d382bbca264697066735822122000d6a20f1a5989ed7b27ccace23d7fbbfb49c1b4f252220ec15f28b349197fc564736f6c63430008180033",
  "linkReferences": {},
  "deployedLinkReferences": {}
}