{
  "_format": "hh-sol-artifact-1",
  "contractName": "AuctionFactory",
  "sourceName": "contracts/AuctionFactory.sol",
  "abi": [
    {
      "inputs": [
        {
          "internalType": "address",
          "name": "implementation_",
          "type": "address"
        }
      ],
      "stateMutability": "nonpayable",
      "type": "constructor"
    },
    {
      "inputs": [
        {
          "internalType": "address",
          "name": "owner",
          "type": "address"
        }
      ],
      "name": "OwnableInvalidOwner",
      "type": "error"
    },
    {
      "inputs": [
        {
          "internalType": "address",
          "name": "account",
          "type": "address"
        }
      ],
      "name": "OwnableUnauthorizedAccount",
      "type": "error"
    },
    {
      "anonymous": false,
      "inputs": [
        {
          "indexed": false,
          "internalType": "address",
          "name": "proxy",
          "type": "address"
        },
        {
          "indexed": false,
          "internalType": "address",
          "name": "seller",
          "type": "address"
        },
        {
          "indexed": false,
          "internalType": "address",
          "name": "nft",
          "type": "address"
        },
        {
          "indexed": false,
          "internalType": "uint256",
          "name": "tokenId",
          "type": "uint256"
        },
        {
          "indexed": false,
          "internalType": "address",
          "name": "payToken",
          "type": "address"
        },
        {
          "indexed": false,
          "internalType": "uint256",
          "name": "startPrice",
          "type": "uint256"
        },
        {
          "indexed": false,
          "internalType": "uint256",
          "name": "duration",
          "type": "uint256"
        }
      ],
      "name": "AuctionDeployed",
      "type": "event"
    },
    {
      "anonymous": false,
      "inputs": [
        {
          "indexed": false,
          "internalType": "address",
          "name": "newImpl",
          "type": "address"
        }
      ],
      "name": "ImplementationUpgraded",
      "type": "event"
    },
    {
      "anonymous": false,
      "inputs": [
        {
          "indexed": true,
          "internalType": "address",
          "name": "previousOwner",
          "type": "address"
        },
        {
          "indexed": true,
          "internalType": "address",
          "name": "newOwner",
          "type": "address"
        }
      ],
      "name": "OwnershipTransferred",
      "type": "event"
    },
    {
      "inputs": [
        {
          "internalType": "uint256",
          "name": "",
          "type": "uint256"
        }
      ],
      "name": "allAuctions",
      "outputs": [
        {
          "internalType": "address",
          "name": "",
          "type": "address"
        }
      ],
      "stateMutability": "view",
      "type": "function"
    },
    {
      "inputs": [],
      "name": "allAuctionsLength",
      "outputs": [
        {
          "internalType": "uint256",
          "name": "",
          "type": "uint256"
        }
      ],
      "stateMutability": "view",
      "type": "function"
    },
    {
      "inputs": [
        {
          "internalType": "address",
          "name": "nftContract",
          "type": "address"
        },
        {
          "internalType": "uint256",
          "name": "tokenId",
          "type": "uint256"
        },
        {
          "internalType": "uint256",
          "name": "duration",
          "type": "uint256"
        },
        {
          "internalType": "uint256",
          "name": "startPrice",
          "type": "uint256"
        },
        {
          "internalType": "address",
          "name": "payTokenAddress",
          "type": "address"
        }
      ],
      "name": "createAuction",
      "outputs": [
        {
          "internalType": "address",
          "name": "proxyAddr",
          "type": "address"
        }
      ],
      "stateMutability": "nonpayable",
      "type": "function"
    },
    {
      "inputs": [],
      "name": "implementation",
      "outputs": [
        {
          "internalType": "address",
          "name": "",
          "type": "address"
        }
      ],
      "stateMutability": "view",
      "type": "function"
    },
    {
      "inputs": [],
      "name": "owner",
      "outputs": [
        {
          "internalType": "address",
          "name": "",
          "type": "address"
        }
      ],
      "stateMutability": "view",
      "type": "function"
    },
    {
      "inputs": [],
      "name": "renounceOwnership",
      "outputs": [],
      "stateMutability": "nonpayable",
      "type": "function"
    },
    {
      "inputs": [
        {
          "internalType": "address",
          "name": "auctionProxy",
          "type": "address"
        },
        {
          "internalType": "address",
          "name": "router",
          "type": "address"
        },
        {
          "internalType": "bool",
          "name": "enabled",
          "type": "bool"
        }
      ],
      "name": "setAuctionCcipConfig",
      "outputs": [],
      "stateMutability": "nonpayable",
      "type": "function"
    },
    {
      "inputs": [
        {
          "internalType": "address",
          "name": "auctionProxy",
          "type": "address"
        },
        {
          "internalType": "address",
          "name": "recipient",
          "type": "address"
        },
        {
          "internalType": "uint16",
          "name": "feeBps",
          "type": "uint16"
        }
      ],
      "name": "setAuctionFeeConfig",
      "outputs": [],
      "stateMutability": "nonpayable",
      "type": "function"
    },
    {
      "inputs": [
        {
          "internalType": "address",
          "name": "auctionProxy",
          "type": "address"
        },
        {
          "internalType": "address",
          "name": "token",
          "type": "address"
        },
        {
          "internalType": "address",
          "name": "aggregator",
          "type": "address"
        }
      ],
      "name": "setAuctionPriceFeed",
      "outputs": [],
      "stateMutability": "nonpayable",
      "type": "function"
    },
    {
      "inputs": [
        {
          "internalType": "address",
          "name": "newImpl",
          "type": "address"
        }
      ],
      "name": "setImplementation",
      "outputs": [],
      "stateMutability": "nonpayable",
      "type": "function"
    },
    {
      "inputs": [
        {
          "internalType": "address",
          "name": "newOwner",
          "type": "address"
        }
      ],
      "name": "transferOwnership",
      "outputs": [],
      "stateMutability": "nonpayable",
      "type": "function"
    },
    {
      "inputs": [
        {
          "internalType": "address",
          "name": "auctionProxy",
          "type": "address"
        },
        {
          "internalType": "address",
          "name": "newImpl",
          "type": "address"
        }
      ],
      "name": "upgradeAuction",
      "outputs": [],
      "stateMutability": "nonpayable",
      "type": "function"
    }
  ],
  "bytecode": "0x608060405234801561001057600080fd5b5060405161106538038061106583398101604081905261002f91610114565b338061005657604051631e4fbdf760e01b8152600060048201526024015b60405180910390fd5b61005f816100c4565b506001600160a01b03811661009f5760405162461bcd60e51b81526020600482015260066024820152650696d706c3d360d41b604482015260640161004d565b600180546001600160a01b0319166001600160a01b0392909216919091179055610144565b600080546001600160a01b038381166001600160a01b0319831681178455604051919092169283917f8be0079c531659141344cd1fd0a4f28419497f9722a3daafe3b4186f6b6457e09190a35050565b60006020828403121561012657600080fd5b81516001600160a01b038116811461013d57600080fd5b9392505050565b610f12806101536000396000f3fe60806040523480156200001157600080fd5b5060043610620000c35760003560e01c80638da5cb5b116200007a5780638da5cb5b146200015c578063b0b211da146200016e578063b93f13ef1462000185578063d784d426146200019c578063da1605d914620001b3578063f2fde38b14620001ca57600080fd5b806313a6b5aa14620000c8578063165c588114620000e15780634077503a146200011557806348f3453814620001275780635c60da1b146200013e578063715018a61462000152575b600080fd5b620000df620000d93660046200089a565b620001e1565b005b620000f8620000f2366004620008e4565b620002e7565b6040516001600160a01b0390911681526020015b60405180910390f35b6002546040519081526020016200010c565b620000df62000138366004620008fe565b62000312565b600154620000f8906001600160a01b031681565b620000df62000352565b6000546001600160a01b0316620000f8565b620000f86200017f36600462000952565b6200036a565b620000df62000196366004620009a7565b6200058d565b620000df620001ad366004620009ee565b620005cb565b620000df620001c436600462000a13565b6200066a565b620000df620001db366004620009ee565b620007ac565b620001eb620007f0565b6040516001600160a01b038381166024830152828116604483015260009190851690633b70894360e11b906064015b60408051601f198184030181529181526020820180516001600160e01b03166001600160e01b03199094169390931790925290516200025a919062000a71565b6000604051808303816000865af19150503d806000811462000299576040519150601f19603f3d011682016040523d82523d6000602084013e6200029e565b606091505b5050905080620002e15760405162461bcd60e51b815260206004820152600960248201526818d85b1b0819985a5b60ba1b60448201526064015b60405180910390fd5b50505050565b60028181548110620002f857600080fd5b6000918252602090912001546001600160a01b0316905081565b6200031c620007f0565b6040516001600160a01b03838116602483015261ffff8316604483015260009190851690631a874bab60e11b906064016200021a565b6200035c620007f0565b6200036860006200081f565b565b6001546000906001600160a01b0316620003b15760405162461bcd60e51b81526020600482015260076024820152661b9bc81a5b5c1b60ca1b6044820152606401620002d8565b604080513060248201523360448201526001600160a01b0388811660648301526084820188905260a4820187905260c4820186905284811660e4808401919091528351808403909101815261010490920183526020820180516001600160e01b03166343aa5de360e11b17905260015492519192600092911690839062000438906200086f565b6200044592919062000a8f565b604051809103906000f08015801562000462573d6000803e3d6000fd5b506040516323b872dd60e01b81523360048201526001600160a01b038083166024830152604482018a9052919450849250908916906323b872dd90606401600060405180830381600087803b158015620004bb57600080fd5b505af1158015620004d0573d6000803e3d6000fd5b5050600280546001810182556000919091527f405787fa12a823e0f2b7631cc41b3ba8828b3321ca811111fa75cd3aa3bb5ace0180546001600160a01b0319166001600160a01b03878116918217909255604080519182523360208301528c831690820152606081018b9052908716608082015260a0810188905260c081018990527fb0a0bb08f64cedb1f124bbb24a7a62482cce2146ab71a3cd8ae334b2ab6a2403925060e001905060405180910390a1505095945050505050565b62000597620007f0565b6040516001600160a01b038381166024830152821515604483015260009190851690633cace96b60e21b906064016200021a565b620005d5620007f0565b6001600160a01b038116620006165760405162461bcd60e51b81526020600482015260066024820152650696d706c3d360d41b6044820152606401620002d8565b600180546001600160a01b0319166001600160a01b0383169081179091556040519081527f51ea6ffdc9909d5ca341259f7221902e0676585d833e2bb21fa923c85e8628869060200160405180910390a150565b62000674620007f0565b6001600160a01b038116620006b55760405162461bcd60e51b81526020600482015260066024820152650696d706c3d360d41b6044820152606401620002d8565b604080516001600160a01b038316602482015260448101919091526000606482018190529060840160408051601f198184030181529181526020820180516001600160e01b031663278f794360e11b179052519091506000906001600160a01b038516906200072690849062000a71565b6000604051808303816000865af19150503d806000811462000765576040519150601f19603f3d011682016040523d82523d6000602084013e6200076a565b606091505b5050905080620002e15760405162461bcd60e51b815260206004820152600c60248201526b1d5c19dc9859194819985a5b60a21b6044820152606401620002d8565b620007b6620007f0565b6001600160a01b038116620007e257604051631e4fbdf760e01b815260006004820152602401620002d8565b620007ed816200081f565b50565b6000546001600160a01b03163314620003685760405163118cdaa760e01b8152336004820152602401620002d8565b600080546001600160a01b038381166001600160a01b0319831681178455604051919092169283917f8be0079c531659141344cd1fd0a4f28419497f9722a3daafe3b4186f6b6457e09190a35050565b6104098062000ad483390190565b80356001600160a01b03811681146200089557600080fd5b919050565b600080600060608486031215620008b057600080fd5b620008bb846200087d565b9250620008cb602085016200087d565b9150620008db604085016200087d565b90509250925092565b600060208284031215620008f757600080fd5b5035919050565b6000806000606084860312156200091457600080fd5b6200091f846200087d565b92506200092f602085016200087d565b9150604084013561ffff811681146200094757600080fd5b809150509250925092565b600080600080600060a086880312156200096b57600080fd5b62000976866200087d565b94506020860135935060408601359250606086013591506200099b608087016200087d565b90509295509295909350565b600080600060608486031215620009bd57600080fd5b620009c8846200087d565b9250620009d8602085016200087d565b9150604084013580151581146200094757600080fd5b60006020828403121562000a0157600080fd5b62000a0c826200087d565b9392505050565b6000806040838503121562000a2757600080fd5b62000a32836200087d565b915062000a42602084016200087d565b90509250929050565b60005b8381101562000a6857818101518382015260200162000a4e565b50506000910152565b6000825162000a8581846020870162000a4b565b9190910192915050565b60018060a01b0383168152604060208201526000825180604084015262000abe81606085016020870162000a4b565b601f01601f191691909101606001939250505056fe608060405260405161040938038061040983398101604081905261002291610267565b61002c8282610033565b5050610351565b61003c82610092565b6040516001600160a01b038316907fbc7cd75a20ee27fd9adebab32041f755214dbc6bffa90cc0225b39da2e5c2d3b90600090a280511561008657610081828261010e565b505050565b61008e610185565b5050565b806001600160a01b03163b6000036100cd57604051634c9c8ce360e01b81526001600160a01b03821660048201526024015b60405180910390fd5b7f360894a13ba1a3210667c828492db98dca3e2076cc3735a920a3ca505d382bbc80546001600160a01b0319166001600160a01b0392909216919091179055565b6060600080846001600160a01b03168460405161012b9190610335565b600060405180830381855af49150503d8060008114610166576040519150601f19603f3d011682016040523d82523d6000602084013e61016b565b606091505b50909250905061017c8583836101a6565b95945050505050565b34156101a45760405163b398979f60e01b815260040160405180910390fd5b565b6060826101bb576101b682610205565b6101fe565b81511580156101d257506001600160a01b0384163b155b156101fb57604051639996b31560e01b81526001600160a01b03851660048201526024016100c4565b50805b9392505050565b80511561021457805160208201fd5b60405163d6bda27560e01b815260040160405180910390fd5b634e487b7160e01b600052604160045260246000fd5b60005b8381101561025e578181015183820152602001610246565b50506000910152565b6000806040838503121561027a57600080fd5b82516001600160a01b038116811461029157600080fd5b60208401519092506001600160401b03808211156102ae57600080fd5b818501915085601f8301126102c257600080fd5b8151818111156102d4576102d461022d565b604051601f8201601f19908116603f011681019083821181831017156102fc576102fc61022d565b8160405282815288602084870101111561031557600080fd5b610326836020830160208801610243565b80955050505050509250929050565b60008251610347818460208701610243565b9190910192915050565b60aa8061035f6000396000f3fe6080604052600a600c565b005b60186014601a565b6051565b565b6000604c7f360894a13ba1a3210667c828492db98dca3e2076cc3735a920a3ca505d382bbc546001600160a01b031690565b905090565b3660008037600080366000845af43d6000803e808015606f573d6000f35b3d6000fdfea26469706673582212207f01ce5533f739ec5d1dae42c3b43514fd4153c39fcea53c964642e89225be3564736f6c63430008180033a2646970667358221220ceee780816171d23df61532c6d063328d108779a0616780f92d33c19f15e8d7d64736f6c63430008180033",
  "linkReferences": {},
  "deployedLinkReferences": {}
}